{
  "_format": "hh-sol-artifact-1",
  "contractName": "TitanToken",
  "sourceName": "contracts/TitanToken.sol",
  "abi": [
    {
      "inputs": [],
      "stateMutability": "nonpayable",
      "type": "constructor"
    },
    {
      "anonymous": false,
      "inputs": [
        {
          "indexed": true,
          "internalType": "address",
          "name": "owner",
          "type": "address"
        },
        {
          "indexed": true,
          "internalType": "address",
          "name": "approved",
          "type": "address"
        },
        {
          "indexed": true,
          "internalType": "uint256",
          "name": "tokenId",
          "type": "uint256"
        }
      ],
      "name": "Approval",
      "type": "event"
    },
    {
      "anonymous": false,
      "inputs": [
        {
          "indexed": true,
          "internalType": "address",
          "name": "owner",
          "type": "address"
        },
        {
          "indexed": true,
          "internalType": "address",
          "name": "operator",
          "type": "address"
        },
        {
          "indexed": false,
          "internalType": "bool",
          "name": "approved",
          "type": "bool"
        }
      ],
      "name": "ApprovalForAll",
      "type": "event"
    },
    {
      "anonymous": false,
      "inputs": [
        {
          "indexed": true,
          "internalType": "address",
          "name": "previousOwner",
          "type": "address"
        },
        {
          "indexed": true,
          "internalType": "address",
          "name": "newOwner",
          "type": "address"
        }
      ],
      "name": "OwnershipTransferred",
      "type": "event"
    },
    {
      "anonymous": false,
      "inputs": [
        {
          "indexed": true,
          "internalType": "address",
          "name": "from",
          "type": "address"
        },
        {
          "indexed": true,
          "internalType": "address",
          "name": "to",
          "type": "address"
        },
        {
          "indexed": true,
          "internalType": "uint256",
          "name": "tokenId",
          "type": "uint256"
        }
      ],
      "name": "Transfer",
      "type": "event"
    },
    {
      "inputs": [
        {
          "internalType": "address",
          "name": "to",
          "type": "address"
        },
        {
          "internalType": "uint256",
          "name": "tokenId",
          "type": "uint256"
        }
      ],
      "name": "approve",
      "outputs": [],
      "stateMutability": "nonpayable",
      "type": "function"
    },
    {
      "inputs": [
        {
          "internalType": "address",
          "name": "owner",
          "type": "address"
        }
      ],
      "name": "balanceOf",
      "outputs": [
        {
          "internalType": "uint256",
          "name": "",
          "type": "uint256"
        }
      ],
      "stateMutability": "view",
      "type": "function"
    },
    {
      "inputs": [],
      "name": "factory",
      "outputs": [
        {
          "internalType": "address",
          "name": "",
          "type": "address"
        }
      ],
      "stateMutability": "view",
      "type": "function"
    },
    {
      "inputs": [
        {
          "internalType": "uint256",
          "name": "tokenId",
          "type": "uint256"
        }
      ],
      "name": "getApproved",
      "outputs": [
        {
          "internalType": "address",
          "name": "",
          "type": "address"
        }
      ],
      "stateMutability": "view",
      "type": "function"
    },
    {
      "inputs": [],
      "name": "getCurrentId",
      "outputs": [
        {
          "internalType": "uint256",
          "name": "",
          "type": "uint256"
        }
      ],
      "stateMutability": "view",
      "type": "function"
    },
    {
      "inputs": [
        {
          "internalType": "address",
          "name": "owner",
          "type": "address"
        },
        {
          "internalType": "address",
          "name": "operator",
          "type": "address"
        }
      ],
      "name": "isApprovedForAll",
      "outputs": [
        {
          "internalType": "bool",
          "name": "",
          "type": "bool"
        }
      ],
      "stateMutability": "view",
      "type": "function"
    },
    {
      "inputs": [
        {
          "internalType": "address",
          "name": "_to",
          "type": "address"
        }
      ],
      "name": "mint",
      "outputs": [],
      "stateMutability": "nonpayable",
      "type": "function"
    },
    {
      "inputs": [],
      "name": "name",
      "outputs": [
        {
          "internalType": "string",
          "name": "",
          "type": "string"
        }
      ],
      "stateMutability": "view",
      "type": "function"
    },
    {
      "inputs": [],
      "name": "owner",
      "outputs": [
        {
          "internalType": "address",
          "name": "",
          "type": "address"
        }
      ],
      "stateMutability": "view",
      "type": "function"
    },
    {
      "inputs": [
        {
          "internalType": "uint256",
          "name": "tokenId",
          "type": "uint256"
        }
      ],
      "name": "ownerOf",
      "outputs": [
        {
          "internalType": "address",
          "name": "",
          "type": "address"
        }
      ],
      "stateMutability": "view",
      "type": "function"
    },
    {
      "inputs": [],
      "name": "renounceOwnership",
      "outputs": [],
      "stateMutability": "nonpayable",
      "type": "function"
    },
    {
      "inputs": [
        {
          "internalType": "address",
          "name": "from",
          "type": "address"
        },
        {
          "internalType": "address",
          "name": "to",
          "type": "address"
        },
        {
          "internalType": "uint256",
          "name": "tokenId",
          "type": "uint256"
        }
      ],
      "name": "safeTransferFrom",
      "outputs": [],
      "stateMutability": "nonpayable",
      "type": "function"
    },
    {
      "inputs": [
        {
          "internalType": "address",
          "name": "from",
          "type": "address"
        },
        {
          "internalType": "address",
          "name": "to",
          "type": "address"
        },
        {
          "internalType": "uint256",
          "name": "tokenId",
          "type": "uint256"
        },
        {
          "internalType": "bytes",
          "name": "_data",
          "type": "bytes"
        }
      ],
      "name": "safeTransferFrom",
      "outputs": [],
      "stateMutability": "nonpayable",
      "type": "function"
    },
    {
      "inputs": [
        {
          "internalType": "address",
          "name": "operator",
          "type": "address"
        },
        {
          "internalType": "bool",
          "name": "approved",
          "type": "bool"
        }
      ],
      "name": "setApprovalForAll",
      "outputs": [],
      "stateMutability": "nonpayable",
      "type": "function"
    },
    {
      "inputs": [
        {
          "internalType": "address",
          "name": "_factory",
          "type": "address"
        }
      ],
      "name": "setFactory",
      "outputs": [],
      "stateMutability": "nonpayable",
      "type": "function"
    },
    {
      "inputs": [
        {
          "internalType": "bytes4",
          "name": "interfaceId",
          "type": "bytes4"
        }
      ],
      "name": "supportsInterface",
      "outputs": [
        {
          "internalType": "bool",
          "name": "",
          "type": "bool"
        }
      ],
      "stateMutability": "view",
      "type": "function"
    },
    {
      "inputs": [],
      "name": "symbol",
      "outputs": [
        {
          "internalType": "string",
          "name": "",
          "type": "string"
        }
      ],
      "stateMutability": "view",
      "type": "function"
    },
    {
      "inputs": [
        {
          "internalType": "uint256",
          "name": "tokenId",
          "type": "uint256"
        }
      ],
      "name": "tokenURI",
      "outputs": [
        {
          "internalType": "string",
          "name": "",
          "type": "string"
        }
      ],
      "stateMutability": "view",
      "type": "function"
    },
    {
      "inputs": [
        {
          "internalType": "address",
          "name": "from",
          "type": "address"
        },
        {
          "internalType": "address",
          "name": "to",
          "type": "address"
        },
        {
          "internalType": "uint256",
          "name": "tokenId",
          "type": "uint256"
        }
      ],
      "name": "transferFrom",
      "outputs": [],
      "stateMutability": "nonpayable",
      "type": "function"
    },
    {
      "inputs": [
        {
          "internalType": "address",
          "name": "newOwner",
          "type": "address"
        }
      ],
      "name": "transferOwnership",
      "outputs": [],
      "stateMutability": "nonpayable",
      "type": "function"
    }
  ],
  "bytecode": "0x60806040523480156200001157600080fd5b506040518060400160405280600b81526020017f546974616e20546f6b656e0000000000000000000000000000000000000000008152506040518060400160405280600481526020017f5449544100000000000000000000000000000000000000000000000000000000815250816000908051906020019062000096929190620001d3565b508060019080519060200190620000af929190620001d3565b505050620000d2620000c6620000ef60201b60201c565b620000f760201b60201c565b620000e96007620001bd60201b62000fd31760201c565b620002e8565b600033905090565b6000600660009054906101000a900473ffffffffffffffffffffffffffffffffffffffff16905081600660006101000a81548173ffffffffffffffffffffffffffffffffffffffff021916908373ffffffffffffffffffffffffffffffffffffffff1602179055508173ffffffffffffffffffffffffffffffffffffffff168173ffffffffffffffffffffffffffffffffffffffff167f8be0079c531659141344cd1fd0a4f28419497f9722a3daafe3b4186f6b6457e060405160405180910390a35050565b6001816000016000828254019250508190555050565b828054620001e19062000283565b90600052602060002090601f01602090048101928262000205576000855562000251565b82601f106200022057805160ff191683800117855562000251565b8280016001018555821562000251579182015b828111156200025057825182559160200191906001019062000233565b5b50905062000260919062000264565b5090565b5b808211156200027f57600081600090555060010162000265565b5090565b600060028204905060018216806200029c57607f821691505b60208210811415620002b357620002b2620002b9565b5b50919050565b7f4e487b7100000000000000000000000000000000000000000000000000000000600052602260045260246000fd5b612d0b80620002f86000396000f3fe608060405234801561001057600080fd5b506004361061012c5760003560e01c806370a08231116100ad578063b88d4fde11610071578063b88d4fde1461031b578063c45a015514610337578063c87b56dd14610355578063e985e9c514610385578063f2fde38b146103b55761012c565b806370a0823114610289578063715018a6146102b95780638da5cb5b146102c357806395d89b41146102e1578063a22cb465146102ff5761012c565b806342842e0e116100f457806342842e0e146101e75780635bb47808146102035780636352211e1461021f5780636a6278421461024f5780636c1438621461026b5761012c565b806301ffc9a71461013157806306fdde0314610161578063081812fc1461017f578063095ea7b3146101af57806323b872dd146101cb575b600080fd5b61014b60048036038101906101469190611da3565b6103d1565b60405161015891906121cc565b60405180910390f35b6101696104b3565b60405161017691906121e7565b60405180910390f35b61019960048036038101906101949190611df5565b610545565b6040516101a69190612165565b60405180910390f35b6101c960048036038101906101c49190611d67565b6105ca565b005b6101e560048036038101906101e09190611c61565b6106e2565b005b61020160048036038101906101fc9190611c61565b610742565b005b61021d60048036038101906102189190611bfc565b610762565b005b61023960048036038101906102349190611df5565b610822565b6040516102469190612165565b60405180910390f35b61026960048036038101906102649190611bfc565b6108d4565b005b61027361098a565b6040516102809190612429565b60405180910390f35b6102a3600480360381019061029e9190611bfc565b61099b565b6040516102b09190612429565b60405180910390f35b6102c1610a53565b005b6102cb610adb565b6040516102d89190612165565b60405180910390f35b6102e9610b05565b6040516102f691906121e7565b60405180910390f35b61031960048036038101906103149190611d2b565b610b97565b005b61033560048036038101906103309190611cb0565b610d18565b005b61033f610d7a565b60405161034c9190612165565b60405180910390f35b61036f600480360381019061036a9190611df5565b610da0565b60405161037c91906121e7565b60405180910390f35b61039f600480360381019061039a9190611c25565b610e47565b6040516103ac91906121cc565b60405180910390f35b6103cf60048036038101906103ca9190611bfc565b610edb565b005b60007f80ac58cd000000000000000000000000000000000000000000000000000000007bffffffffffffffffffffffffffffffffffffffffffffffffffffffff1916827bffffffffffffffffffffffffffffffffffffffffffffffffffffffff1916148061049c57507f5b5e139f000000000000000000000000000000000000000000000000000000007bffffffffffffffffffffffffffffffffffffffffffffffffffffffff1916827bffffffffffffffffffffffffffffffffffffffffffffffffffffffff1916145b806104ac57506104ab82610fe9565b5b9050919050565b6060600080546104c29061264e565b80601f01602080910402602001604051908101604052809291908181526020018280546104ee9061264e565b801561053b5780601f106105105761010080835404028352916020019161053b565b820191906000526020600020905b81548152906001019060200180831161051e57829003601f168201915b5050505050905090565b600061055082611053565b61058f576040517f08c379a000000000000000000000000000000000000000000000000000000000815260040161058690612349565b60405180910390fd5b6004600083815260200190815260200160002060009054906101000a900473ffffffffffffffffffffffffffffffffffffffff169050919050565b60006105d582610822565b90508073ffffffffffffffffffffffffffffffffffffffff168373ffffffffffffffffffffffffffffffffffffffff161415610646576040517f08c379a000000000000000000000000000000000000000000000000000000000815260040161063d906123e9565b60405180910390fd5b8073ffffffffffffffffffffffffffffffffffffffff166106656110bf565b73ffffffffffffffffffffffffffffffffffffffff16148061069457506106938161068e6110bf565b610e47565b5b6106d3576040517f08c379a00000000000000000000000000000000000000000000000000000000081526004016106ca906122c9565b60405180910390fd5b6106dd83836110c7565b505050565b6106f36106ed6110bf565b82611180565b610732576040517f08c379a000000000000000000000000000000000000000000000000000000000815260040161072990612409565b60405180910390fd5b61073d83838361125e565b505050565b61075d83838360405180602001604052806000815250610d18565b505050565b61076a6110bf565b73ffffffffffffffffffffffffffffffffffffffff16610788610adb565b73ffffffffffffffffffffffffffffffffffffffff16146107de576040517f08c379a00000000000000000000000000000000000000000000000000000000081526004016107d590612369565b60405180910390fd5b80600860006101000a81548173ffffffffffffffffffffffffffffffffffffffff021916908373ffffffffffffffffffffffffffffffffffffffff16021790555050565b6000806002600084815260200190815260200160002060009054906101000a900473ffffffffffffffffffffffffffffffffffffffff169050600073ffffffffffffffffffffffffffffffffffffffff168173ffffffffffffffffffffffffffffffffffffffff1614156108cb576040517f08c379a00000000000000000000000000000000000000000000000000000000081526004016108c290612309565b60405180910390fd5b80915050919050565b3373ffffffffffffffffffffffffffffffffffffffff16600860009054906101000a900473ffffffffffffffffffffffffffffffffffffffff1673ffffffffffffffffffffffffffffffffffffffff1614610964576040517f08c379a000000000000000000000000000000000000000000000000000000000815260040161095b906123c9565b60405180910390fd5b600061097060076114ba565b905061097c82826114c8565b6109866007610fd3565b5050565b600061099660076114ba565b905090565b60008073ffffffffffffffffffffffffffffffffffffffff168273ffffffffffffffffffffffffffffffffffffffff161415610a0c576040517f08c379a0000000000000000000000000000000000000000000000000000000008152600401610a03906122e9565b60405180910390fd5b600360008373ffffffffffffffffffffffffffffffffffffffff1673ffffffffffffffffffffffffffffffffffffffff168152602001908152602001600020549050919050565b610a5b6110bf565b73ffffffffffffffffffffffffffffffffffffffff16610a79610adb565b73ffffffffffffffffffffffffffffffffffffffff1614610acf576040517f08c379a0000000000000000000000000000000000000000000000000000000008152600401610ac690612369565b60405180910390fd5b610ad96000611696565b565b6000600660009054906101000a900473ffffffffffffffffffffffffffffffffffffffff16905090565b606060018054610b149061264e565b80601f0160208091040260200160405190810160405280929190818152602001828054610b409061264e565b8015610b8d5780601f10610b6257610100808354040283529160200191610b8d565b820191906000526020600020905b815481529060010190602001808311610b7057829003601f168201915b5050505050905090565b610b9f6110bf565b73ffffffffffffffffffffffffffffffffffffffff168273ffffffffffffffffffffffffffffffffffffffff161415610c0d576040517f08c379a0000000000000000000000000000000000000000000000000000000008152600401610c0490612289565b60405180910390fd5b8060056000610c1a6110bf565b73ffffffffffffffffffffffffffffffffffffffff1673ffffffffffffffffffffffffffffffffffffffff16815260200190815260200160002060008473ffffffffffffffffffffffffffffffffffffffff1673ffffffffffffffffffffffffffffffffffffffff16815260200190815260200160002060006101000a81548160ff0219169083151502179055508173ffffffffffffffffffffffffffffffffffffffff16610cc76110bf565b73ffffffffffffffffffffffffffffffffffffffff167f17307eab39ab6107e8899845ad3d59bd9653f200f220920489ca2b5937696c3183604051610d0c91906121cc565b60405180910390a35050565b610d29610d236110bf565b83611180565b610d68576040517f08c379a0000000000000000000000000000000000000000000000000000000008152600401610d5f90612409565b60405180910390fd5b610d748484848461175c565b50505050565b600860009054906101000a900473ffffffffffffffffffffffffffffffffffffffff1681565b6060610dab82611053565b610dea576040517f08c379a0000000000000000000000000000000000000000000000000000000008152600401610de1906123a9565b60405180910390fd5b6000610df46117b8565b90506000815111610e145760405180602001604052806000815250610e3f565b80610e1e846117cf565b604051602001610e2f929190612141565b6040516020818303038152906040525b915050919050565b6000600560008473ffffffffffffffffffffffffffffffffffffffff1673ffffffffffffffffffffffffffffffffffffffff16815260200190815260200160002060008373ffffffffffffffffffffffffffffffffffffffff1673ffffffffffffffffffffffffffffffffffffffff16815260200190815260200160002060009054906101000a900460ff16905092915050565b610ee36110bf565b73ffffffffffffffffffffffffffffffffffffffff16610f01610adb565b73ffffffffffffffffffffffffffffffffffffffff1614610f57576040517f08c379a0000000000000000000000000000000000000000000000000000000008152600401610f4e90612369565b60405180910390fd5b600073ffffffffffffffffffffffffffffffffffffffff168173ffffffffffffffffffffffffffffffffffffffff161415610fc7576040517f08c379a0000000000000000000000000000000000000000000000000000000008152600401610fbe90612229565b60405180910390fd5b610fd081611696565b50565b6001816000016000828254019250508190555050565b60007f01ffc9a7000000000000000000000000000000000000000000000000000000007bffffffffffffffffffffffffffffffffffffffffffffffffffffffff1916827bffffffffffffffffffffffffffffffffffffffffffffffffffffffff1916149050919050565b60008073ffffffffffffffffffffffffffffffffffffffff166002600084815260200190815260200160002060009054906101000a900473ffffffffffffffffffffffffffffffffffffffff1673ffffffffffffffffffffffffffffffffffffffff1614159050919050565b600033905090565b816004600083815260200190815260200160002060006101000a81548173ffffffffffffffffffffffffffffffffffffffff021916908373ffffffffffffffffffffffffffffffffffffffff160217905550808273ffffffffffffffffffffffffffffffffffffffff1661113a83610822565b73ffffffffffffffffffffffffffffffffffffffff167f8c5be1e5ebec7d5bd14f71427d1e84f3dd0314c0f7b2291e5b200ac8c7c3b92560405160405180910390a45050565b600061118b82611053565b6111ca576040517f08c379a00000000000000000000000000000000000000000000000000000000081526004016111c1906122a9565b60405180910390fd5b60006111d583610822565b90508073ffffffffffffffffffffffffffffffffffffffff168473ffffffffffffffffffffffffffffffffffffffff16148061124457508373ffffffffffffffffffffffffffffffffffffffff1661122c84610545565b73ffffffffffffffffffffffffffffffffffffffff16145b8061125557506112548185610e47565b5b91505092915050565b8273ffffffffffffffffffffffffffffffffffffffff1661127e82610822565b73ffffffffffffffffffffffffffffffffffffffff16146112d4576040517f08c379a00000000000000000000000000000000000000000000000000000000081526004016112cb90612389565b60405180910390fd5b600073ffffffffffffffffffffffffffffffffffffffff168273ffffffffffffffffffffffffffffffffffffffff161415611344576040517f08c379a000000000000000000000000000000000000000000000000000000000815260040161133b90612269565b60405180910390fd5b61134f83838361197c565b61135a6000826110c7565b6001600360008573ffffffffffffffffffffffffffffffffffffffff1673ffffffffffffffffffffffffffffffffffffffff16815260200190815260200160002060008282546113aa9190612564565b925050819055506001600360008473ffffffffffffffffffffffffffffffffffffffff1673ffffffffffffffffffffffffffffffffffffffff168152602001908152602001600020600082825461140191906124dd565b92505081905550816002600083815260200190815260200160002060006101000a81548173ffffffffffffffffffffffffffffffffffffffff021916908373ffffffffffffffffffffffffffffffffffffffff160217905550808273ffffffffffffffffffffffffffffffffffffffff168473ffffffffffffffffffffffffffffffffffffffff167fddf252ad1be2c89b69c2b068fc378daa952ba7f163c4a11628f55a4df523b3ef60405160405180910390a4505050565b600081600001549050919050565b600073ffffffffffffffffffffffffffffffffffffffff168273ffffffffffffffffffffffffffffffffffffffff161415611538576040517f08c379a000000000000000000000000000000000000000000000000000000000815260040161152f90612329565b60405180910390fd5b61154181611053565b15611581576040517f08c379a000000000000000000000000000000000000000000000000000000000815260040161157890612249565b60405180910390fd5b61158d6000838361197c565b6001600360008473ffffffffffffffffffffffffffffffffffffffff1673ffffffffffffffffffffffffffffffffffffffff16815260200190815260200160002060008282546115dd91906124dd565b92505081905550816002600083815260200190815260200160002060006101000a81548173ffffffffffffffffffffffffffffffffffffffff021916908373ffffffffffffffffffffffffffffffffffffffff160217905550808273ffffffffffffffffffffffffffffffffffffffff16600073ffffffffffffffffffffffffffffffffffffffff167fddf252ad1be2c89b69c2b068fc378daa952ba7f163c4a11628f55a4df523b3ef60405160405180910390a45050565b6000600660009054906101000a900473ffffffffffffffffffffffffffffffffffffffff16905081600660006101000a81548173ffffffffffffffffffffffffffffffffffffffff021916908373ffffffffffffffffffffffffffffffffffffffff1602179055508173ffffffffffffffffffffffffffffffffffffffff168173ffffffffffffffffffffffffffffffffffffffff167f8be0079c531659141344cd1fd0a4f28419497f9722a3daafe3b4186f6b6457e060405160405180910390a35050565b61176784848461125e565b61177384848484611981565b6117b2576040517f08c379a00000000000000000000000000000000000000000000000000000000081526004016117a990612209565b60405180910390fd5b50505050565b606060405180602001604052806000815250905090565b60606000821415611817576040518060400160405280600181526020017f30000000000000000000000000000000000000000000000000000000000000008152509050611977565b600082905060005b60008214611849578080611832906126b1565b915050600a826118429190612533565b915061181f565b60008167ffffffffffffffff81111561188b577f4e487b7100000000000000000000000000000000000000000000000000000000600052604160045260246000fd5b6040519080825280601f01601f1916602001820160405280156118bd5781602001600182028036833780820191505090505b5090505b60008514611970576001826118d69190612564565b9150600a856118e591906126fa565b60306118f191906124dd565b60f81b81838151811061192d577f4e487b7100000000000000000000000000000000000000000000000000000000600052603260045260246000fd5b60200101907effffffffffffffffffffffffffffffffffffffffffffffffffffffffffffff1916908160001a905350600a856119699190612533565b94506118c1565b8093505050505b919050565b505050565b60006119a28473ffffffffffffffffffffffffffffffffffffffff16611b18565b15611b0b578373ffffffffffffffffffffffffffffffffffffffff1663150b7a026119cb6110bf565b8786866040518563ffffffff1660e01b81526004016119ed9493929190612180565b602060405180830381600087803b158015611a0757600080fd5b505af1925050508015611a3857506040513d601f19601f82011682018060405250810190611a359190611dcc565b60015b611abb573d8060008114611a68576040519150601f19603f3d011682016040523d82523d6000602084013e611a6d565b606091505b50600081511415611ab3576040517f08c379a0000000000000000000000000000000000000000000000000000000008152600401611aaa90612209565b60405180910390fd5b805181602001fd5b63150b7a0260e01b7bffffffffffffffffffffffffffffffffffffffffffffffffffffffff1916817bffffffffffffffffffffffffffffffffffffffffffffffffffffffff191614915050611b10565b600190505b949350505050565b600080823b905060008111915050919050565b6000611b3e611b3984612469565b612444565b905082815260208101848484011115611b5657600080fd5b611b6184828561260c565b509392505050565b600081359050611b7881612c79565b92915050565b600081359050611b8d81612c90565b92915050565b600081359050611ba281612ca7565b92915050565b600081519050611bb781612ca7565b92915050565b600082601f830112611bce57600080fd5b8135611bde848260208601611b2b565b91505092915050565b600081359050611bf681612cbe565b92915050565b600060208284031215611c0e57600080fd5b6000611c1c84828501611b69565b91505092915050565b60008060408385031215611c3857600080fd5b6000611c4685828601611b69565b9250506020611c5785828601611b69565b9150509250929050565b600080600060608486031215611c7657600080fd5b6000611c8486828701611b69565b9350506020611c9586828701611b69565b9250506040611ca686828701611be7565b9150509250925092565b60008060008060808587031215611cc657600080fd5b6000611cd487828801611b69565b9450506020611ce587828801611b69565b9350506040611cf687828801611be7565b925050606085013567ffffffffffffffff811115611d1357600080fd5b611d1f87828801611bbd565b91505092959194509250565b60008060408385031215611d3e57600080fd5b6000611d4c85828601611b69565b9250506020611d5d85828601611b7e565b9150509250929050565b60008060408385031215611d7a57600080fd5b6000611d8885828601611b69565b9250506020611d9985828601611be7565b9150509250929050565b600060208284031215611db557600080fd5b6000611dc384828501611b93565b91505092915050565b600060208284031215611dde57600080fd5b6000611dec84828501611ba8565b91505092915050565b600060208284031215611e0757600080fd5b6000611e1584828501611be7565b91505092915050565b611e2781612598565b82525050565b611e36816125aa565b82525050565b6000611e478261249a565b611e5181856124b0565b9350611e6181856020860161261b565b611e6a816127e7565b840191505092915050565b6000611e80826124a5565b611e8a81856124c1565b9350611e9a81856020860161261b565b611ea3816127e7565b840191505092915050565b6000611eb9826124a5565b611ec381856124d2565b9350611ed381856020860161261b565b80840191505092915050565b6000611eec6032836124c1565b9150611ef7826127f8565b604082019050919050565b6000611f0f6026836124c1565b9150611f1a82612847565b604082019050919050565b6000611f32601c836124c1565b9150611f3d82612896565b602082019050919050565b6000611f556024836124c1565b9150611f60826128bf565b604082019050919050565b6000611f786019836124c1565b9150611f838261290e565b602082019050919050565b6000611f9b602c836124c1565b9150611fa682612937565b604082019050919050565b6000611fbe6038836124c1565b9150611fc982612986565b604082019050919050565b6000611fe1602a836124c1565b9150611fec826129d5565b604082019050919050565b60006120046029836124c1565b915061200f82612a24565b604082019050919050565b60006120276020836124c1565b915061203282612a73565b602082019050919050565b600061204a602c836124c1565b915061205582612a9c565b604082019050919050565b600061206d6020836124c1565b915061207882612aeb565b602082019050919050565b60006120906029836124c1565b915061209b82612b14565b604082019050919050565b60006120b3602f836124c1565b91506120be82612b63565b604082019050919050565b60006120d66020836124c1565b91506120e182612bb2565b602082019050919050565b60006120f96021836124c1565b915061210482612bdb565b604082019050919050565b600061211c6031836124c1565b915061212782612c2a565b604082019050919050565b61213b81612602565b82525050565b600061214d8285611eae565b91506121598284611eae565b91508190509392505050565b600060208201905061217a6000830184611e1e565b92915050565b60006080820190506121956000830187611e1e565b6121a26020830186611e1e565b6121af6040830185612132565b81810360608301526121c18184611e3c565b905095945050505050565b60006020820190506121e16000830184611e2d565b92915050565b600060208201905081810360008301526122018184611e75565b905092915050565b6000602082019050818103600083015261222281611edf565b9050919050565b6000602082019050818103600083015261224281611f02565b9050919050565b6000602082019050818103600083015261226281611f25565b9050919050565b6000602082019050818103600083015261228281611f48565b9050919050565b600060208201905081810360008301526122a281611f6b565b9050919050565b600060208201905081810360008301526122c281611f8e565b9050919050565b600060208201905081810360008301526122e281611fb1565b9050919050565b6000602082019050818103600083015261230281611fd4565b9050919050565b6000602082019050818103600083015261232281611ff7565b9050919050565b600060208201905081810360008301526123428161201a565b9050919050565b600060208201905081810360008301526123628161203d565b9050919050565b6000602082019050818103600083015261238281612060565b9050919050565b600060208201905081810360008301526123a281612083565b9050919050565b600060208201905081810360008301526123c2816120a6565b9050919050565b600060208201905081810360008301526123e2816120c9565b9050919050565b60006020820190508181036000830152612402816120ec565b9050919050565b600060208201905081810360008301526124228161210f565b9050919050565b600060208201905061243e6000830184612132565b92915050565b600061244e61245f565b905061245a8282612680565b919050565b6000604051905090565b600067ffffffffffffffff821115612484576124836127b8565b5b61248d826127e7565b9050602081019050919050565b600081519050919050565b600081519050919050565b600082825260208201905092915050565b600082825260208201905092915050565b600081905092915050565b60006124e882612602565b91506124f383612602565b9250827fffffffffffffffffffffffffffffffffffffffffffffffffffffffffffffffff038211156125285761252761272b565b5b828201905092915050565b600061253e82612602565b915061254983612602565b9250826125595761255861275a565b5b828204905092915050565b600061256f82612602565b915061257a83612602565b92508282101561258d5761258c61272b565b5b828203905092915050565b60006125a3826125e2565b9050919050565b60008115159050919050565b60007fffffffff0000000000000000000000000000000000000000000000000000000082169050919050565b600073ffffffffffffffffffffffffffffffffffffffff82169050919050565b6000819050919050565b82818337600083830152505050565b60005b8381101561263957808201518184015260208101905061261e565b83811115612648576000848401525b50505050565b6000600282049050600182168061266657607f821691505b6020821081141561267a57612679612789565b5b50919050565b612689826127e7565b810181811067ffffffffffffffff821117156126a8576126a76127b8565b5b80604052505050565b60006126bc82612602565b91507fffffffffffffffffffffffffffffffffffffffffffffffffffffffffffffffff8214156126ef576126ee61272b565b5b600182019050919050565b600061270582612602565b915061271083612602565b9250826127205761271f61275a565b5b828206905092915050565b7f4e487b7100000000000000000000000000000000000000000000000000000000600052601160045260246000fd5b7f4e487b7100000000000000000000000000000000000000000000000000000000600052601260045260246000fd5b7f4e487b7100000000000000000000000000000000000000000000000000000000600052602260045260246000fd5b7f4e487b7100000000000000000000000000000000000000000000000000000000600052604160045260246000fd5b6000601f19601f8301169050919050565b7f4552433732313a207472616e7366657220746f206e6f6e20455243373231526560008201527f63656976657220696d706c656d656e7465720000000000000000000000000000602082015250565b7f4f776e61626c653a206e6577206f776e657220697320746865207a65726f206160008201527f6464726573730000000000000000000000000000000000000000000000000000602082015250565b7f4552433732313a20746f6b656e20616c7265616479206d696e74656400000000600082015250565b7f4552433732313a207472616e7366657220746f20746865207a65726f2061646460008201527f7265737300000000000000000000000000000000000000000000000000000000602082015250565b7f4552433732313a20617070726f766520746f2063616c6c657200000000000000600082015250565b7f4552433732313a206f70657261746f7220717565727920666f72206e6f6e657860008201527f697374656e7420746f6b656e0000000000000000000000000000000000000000602082015250565b7f4552433732313a20617070726f76652063616c6c6572206973206e6f74206f7760008201527f6e6572206e6f7220617070726f76656420666f7220616c6c0000000000000000602082015250565b7f4552433732313a2062616c616e636520717565727920666f7220746865207a6560008201527f726f206164647265737300000000000000000000000000000000000000000000602082015250565b7f4552433732313a206f776e657220717565727920666f72206e6f6e657869737460008201527f656e7420746f6b656e0000000000000000000000000000000000000000000000602082015250565b7f4552433732313a206d696e7420746f20746865207a65726f2061646472657373600082015250565b7f4552433732313a20617070726f76656420717565727920666f72206e6f6e657860008201527f697374656e7420746f6b656e0000000000000000000000000000000000000000602082015250565b7f4f776e61626c653a2063616c6c6572206973206e6f7420746865206f776e6572600082015250565b7f4552433732313a207472616e73666572206f6620746f6b656e2074686174206960008201527f73206e6f74206f776e0000000000000000000000000000000000000000000000602082015250565b7f4552433732314d657461646174613a2055524920717565727920666f72206e6f60008201527f6e6578697374656e7420746f6b656e0000000000000000000000000000000000602082015250565b7f4f6e6c7920466163746f72792063616e2063616c6c20746865206d6574686f64600082015250565b7f4552433732313a20617070726f76616c20746f2063757272656e74206f776e6560008201527f7200000000000000000000000000000000000000000000000000000000000000602082015250565b7f4552433732313a207472616e736665722063616c6c6572206973206e6f74206f60008201527f776e6572206e6f7220617070726f766564000000000000000000000000000000602082015250565b612c8281612598565b8114612c8d57600080fd5b50565b612c99816125aa565b8114612ca457600080fd5b50565b612cb0816125b6565b8114612cbb57600080fd5b50565b612cc781612602565b8114612cd257600080fd5b5056fea26469706673582212202672d1142cccbc9a0261a30a09faab345234b7c09fa4c992b721d0104286422964736f6c63430008040033",
  "linkReferences": {},
  "deployedLinkReferences": {}
}