{
  "_format": "hh-sol-artifact-1",
  "contractName": "TitanToken",
  "sourceName": "contracts/TitanToken.sol",
  "abi": [
    {
      "inputs": [],
      "stateMutability": "nonpayable",
      "type": "constructor"
    },
    {
      "anonymous": false,
      "inputs": [
        {
          "indexed": true,
          "internalType": "address",
          "name": "owner",
          "type": "address"
        },
        {
          "indexed": true,
          "internalType": "address",
          "name": "approved",
          "type": "address"
        },
        {
          "indexed": true,
          "internalType": "uint256",
          "name": "tokenId",
          "type": "uint256"
        }
      ],
      "name": "Approval",
      "type": "event"
    },
    {
      "anonymous": false,
      "inputs": [
        {
          "indexed": true,
          "internalType": "address",
          "name": "owner",
          "type": "address"
        },
        {
          "indexed": true,
          "internalType": "address",
          "name": "operator",
          "type": "address"
        },
        {
          "indexed": false,
          "internalType": "bool",
          "name": "approved",
          "type": "bool"
        }
      ],
      "name": "ApprovalForAll",
      "type": "event"
    },
    {
      "anonymous": false,
      "inputs": [
        {
          "indexed": true,
          "internalType": "address",
          "name": "previousOwner",
          "type": "address"
        },
        {
          "indexed": true,
          "internalType": "address",
          "name": "newOwner",
          "type": "address"
        }
      ],
      "name": "OwnershipTransferred",
      "type": "event"
    },
    {
      "anonymous": false,
      "inputs": [
        {
          "indexed": true,
          "internalType": "address",
          "name": "from",
          "type": "address"
        },
        {
          "indexed": true,
          "internalType": "address",
          "name": "to",
          "type": "address"
        },
        {
          "indexed": true,
          "internalType": "uint256",
          "name": "tokenId",
          "type": "uint256"
        }
      ],
      "name": "Transfer",
      "type": "event"
    },
    {
      "inputs": [
        {
          "internalType": "address",
          "name": "to",
          "type": "address"
        },
        {
          "internalType": "uint256",
          "name": "tokenId",
          "type": "uint256"
        }
      ],
      "name": "approve",
      "outputs": [],
      "stateMutability": "nonpayable",
      "type": "function"
    },
    {
      "inputs": [
        {
          "internalType": "address",
          "name": "owner",
          "type": "address"
        }
      ],
      "name": "balanceOf",
      "outputs": [
        {
          "internalType": "uint256",
          "name": "",
          "type": "uint256"
        }
      ],
      "stateMutability": "view",
      "type": "function"
    },
    {
      "inputs": [
        {
          "internalType": "uint256",
          "name": "tokenId",
          "type": "uint256"
        }
      ],
      "name": "getApproved",
      "outputs": [
        {
          "internalType": "address",
          "name": "",
          "type": "address"
        }
      ],
      "stateMutability": "view",
      "type": "function"
    },
    {
      "inputs": [],
      "name": "getCurrentId",
      "outputs": [
        {
          "internalType": "uint256",
          "name": "",
          "type": "uint256"
        }
      ],
      "stateMutability": "view",
      "type": "function"
    },
    {
      "inputs": [
        {
          "internalType": "address",
          "name": "owner",
          "type": "address"
        },
        {
          "internalType": "address",
          "name": "operator",
          "type": "address"
        }
      ],
      "name": "isApprovedForAll",
      "outputs": [
        {
          "internalType": "bool",
          "name": "",
          "type": "bool"
        }
      ],
      "stateMutability": "view",
      "type": "function"
    },
    {
      "inputs": [
        {
          "internalType": "address",
          "name": "_to",
          "type": "address"
        }
      ],
      "name": "mint",
      "outputs": [],
      "stateMutability": "nonpayable",
      "type": "function"
    },
    {
      "inputs": [],
      "name": "name",
      "outputs": [
        {
          "internalType": "string",
          "name": "",
          "type": "string"
        }
      ],
      "stateMutability": "view",
      "type": "function"
    },
    {
      "inputs": [],
      "name": "owner",
      "outputs": [
        {
          "internalType": "address",
          "name": "",
          "type": "address"
        }
      ],
      "stateMutability": "view",
      "type": "function"
    },
    {
      "inputs": [
        {
          "internalType": "uint256",
          "name": "tokenId",
          "type": "uint256"
        }
      ],
      "name": "ownerOf",
      "outputs": [
        {
          "internalType": "address",
          "name": "",
          "type": "address"
        }
      ],
      "stateMutability": "view",
      "type": "function"
    },
    {
      "inputs": [],
      "name": "renounceOwnership",
      "outputs": [],
      "stateMutability": "nonpayable",
      "type": "function"
    },
    {
      "inputs": [
        {
          "internalType": "address",
          "name": "from",
          "type": "address"
        },
        {
          "internalType": "address",
          "name": "to",
          "type": "address"
        },
        {
          "internalType": "uint256",
          "name": "tokenId",
          "type": "uint256"
        }
      ],
      "name": "safeTransferFrom",
      "outputs": [],
      "stateMutability": "nonpayable",
      "type": "function"
    },
    {
      "inputs": [
        {
          "internalType": "address",
          "name": "from",
          "type": "address"
        },
        {
          "internalType": "address",
          "name": "to",
          "type": "address"
        },
        {
          "internalType": "uint256",
          "name": "tokenId",
          "type": "uint256"
        },
        {
          "internalType": "bytes",
          "name": "_data",
          "type": "bytes"
        }
      ],
      "name": "safeTransferFrom",
      "outputs": [],
      "stateMutability": "nonpayable",
      "type": "function"
    },
    {
      "inputs": [
        {
          "internalType": "address",
          "name": "operator",
          "type": "address"
        },
        {
          "internalType": "bool",
          "name": "approved",
          "type": "bool"
        }
      ],
      "name": "setApprovalForAll",
      "outputs": [],
      "stateMutability": "nonpayable",
      "type": "function"
    },
    {
      "inputs": [
        {
          "internalType": "address",
          "name": "_factory",
          "type": "address"
        }
      ],
      "name": "setFactory",
      "outputs": [],
      "stateMutability": "nonpayable",
      "type": "function"
    },
    {
      "inputs": [
        {
          "internalType": "bytes4",
          "name": "interfaceId",
          "type": "bytes4"
        }
      ],
      "name": "supportsInterface",
      "outputs": [
        {
          "internalType": "bool",
          "name": "",
          "type": "bool"
        }
      ],
      "stateMutability": "view",
      "type": "function"
    },
    {
      "inputs": [],
      "name": "symbol",
      "outputs": [
        {
          "internalType": "string",
          "name": "",
          "type": "string"
        }
      ],
      "stateMutability": "view",
      "type": "function"
    },
    {
      "inputs": [
        {
          "internalType": "uint256",
          "name": "tokenId",
          "type": "uint256"
        }
      ],
      "name": "tokenURI",
      "outputs": [
        {
          "internalType": "string",
          "name": "",
          "type": "string"
        }
      ],
      "stateMutability": "view",
      "type": "function"
    },
    {
      "inputs": [
        {
          "internalType": "address",
          "name": "from",
          "type": "address"
        },
        {
          "internalType": "address",
          "name": "to",
          "type": "address"
        },
        {
          "internalType": "uint256",
          "name": "tokenId",
          "type": "uint256"
        }
      ],
      "name": "transferFrom",
      "outputs": [],
      "stateMutability": "nonpayable",
      "type": "function"
    },
    {
      "inputs": [
        {
          "internalType": "address",
          "name": "newOwner",
          "type": "address"
        }
      ],
      "name": "transferOwnership",
      "outputs": [],
      "stateMutability": "nonpayable",
      "type": "function"
    }
  ],
  "bytecode": "0x60806040523480156200001157600080fd5b506040518060400160405280600b81526020017f546974616e20546f6b656e0000000000000000000000000000000000000000008152506040518060400160405280600481526020017f5449544100000000000000000000000000000000000000000000000000000000815250816000908051906020019062000096929190620001d3565b508060019080519060200190620000af929190620001d3565b505050620000d2620000c6620000ef60201b60201c565b620000f760201b60201c565b620000e96007620001bd60201b62000f841760201c565b620002e8565b600033905090565b6000600660009054906101000a900473ffffffffffffffffffffffffffffffffffffffff16905081600660006101000a81548173ffffffffffffffffffffffffffffffffffffffff021916908373ffffffffffffffffffffffffffffffffffffffff1602179055508173ffffffffffffffffffffffffffffffffffffffff168173ffffffffffffffffffffffffffffffffffffffff167f8be0079c531659141344cd1fd0a4f28419497f9722a3daafe3b4186f6b6457e060405160405180910390a35050565b6001816000016000828254019250508190555050565b828054620001e19062000283565b90600052602060002090601f01602090048101928262000205576000855562000251565b82601f106200022057805160ff191683800117855562000251565b8280016001018555821562000251579182015b828111156200025057825182559160200191906001019062000233565b5b50905062000260919062000264565b5090565b5b808211156200027f57600081600090555060010162000265565b5090565b600060028204905060018216806200029c57607f821691505b60208210811415620002b357620002b2620002b9565b5b50919050565b7f4e487b7100000000000000000000000000000000000000000000000000000000600052602260045260246000fd5b612cbc80620002f86000396000f3fe608060405234801561001057600080fd5b50600436106101215760003560e01c80636c143862116100ad578063a22cb46511610071578063a22cb465146102f4578063b88d4fde14610310578063c87b56dd1461032c578063e985e9c51461035c578063f2fde38b1461038c57610121565b80636c1438621461026057806370a082311461027e578063715018a6146102ae5780638da5cb5b146102b857806395d89b41146102d657610121565b806323b872dd116100f457806323b872dd146101c057806342842e0e146101dc5780635bb47808146101f85780636352211e146102145780636a6278421461024457610121565b806301ffc9a71461012657806306fdde0314610156578063081812fc14610174578063095ea7b3146101a4575b600080fd5b610140600480360381019061013b9190611d54565b6103a8565b60405161014d919061217d565b60405180910390f35b61015e61048a565b60405161016b9190612198565b60405180910390f35b61018e60048036038101906101899190611da6565b61051c565b60405161019b9190612116565b60405180910390f35b6101be60048036038101906101b99190611d18565b6105a1565b005b6101da60048036038101906101d59190611c12565b6106b9565b005b6101f660048036038101906101f19190611c12565b610719565b005b610212600480360381019061020d9190611bad565b610739565b005b61022e60048036038101906102299190611da6565b6107f9565b60405161023b9190612116565b60405180910390f35b61025e60048036038101906102599190611bad565b6108ab565b005b610268610961565b60405161027591906123da565b60405180910390f35b61029860048036038101906102939190611bad565b610972565b6040516102a591906123da565b60405180910390f35b6102b6610a2a565b005b6102c0610ab2565b6040516102cd9190612116565b60405180910390f35b6102de610adc565b6040516102eb9190612198565b60405180910390f35b61030e60048036038101906103099190611cdc565b610b6e565b005b61032a60048036038101906103259190611c61565b610cef565b005b61034660048036038101906103419190611da6565b610d51565b6040516103539190612198565b60405180910390f35b61037660048036038101906103719190611bd6565b610df8565b604051610383919061217d565b60405180910390f35b6103a660048036038101906103a19190611bad565b610e8c565b005b60007f80ac58cd000000000000000000000000000000000000000000000000000000007bffffffffffffffffffffffffffffffffffffffffffffffffffffffff1916827bffffffffffffffffffffffffffffffffffffffffffffffffffffffff1916148061047357507f5b5e139f000000000000000000000000000000000000000000000000000000007bffffffffffffffffffffffffffffffffffffffffffffffffffffffff1916827bffffffffffffffffffffffffffffffffffffffffffffffffffffffff1916145b80610483575061048282610f9a565b5b9050919050565b606060008054610499906125ff565b80601f01602080910402602001604051908101604052809291908181526020018280546104c5906125ff565b80156105125780601f106104e757610100808354040283529160200191610512565b820191906000526020600020905b8154815290600101906020018083116104f557829003601f168201915b5050505050905090565b600061052782611004565b610566576040517f08c379a000000000000000000000000000000000000000000000000000000000815260040161055d906122fa565b60405180910390fd5b6004600083815260200190815260200160002060009054906101000a900473ffffffffffffffffffffffffffffffffffffffff169050919050565b60006105ac826107f9565b90508073ffffffffffffffffffffffffffffffffffffffff168373ffffffffffffffffffffffffffffffffffffffff16141561061d576040517f08c379a00000000000000000000000000000000000000000000000000000000081526004016106149061239a565b60405180910390fd5b8073ffffffffffffffffffffffffffffffffffffffff1661063c611070565b73ffffffffffffffffffffffffffffffffffffffff16148061066b575061066a81610665611070565b610df8565b5b6106aa576040517f08c379a00000000000000000000000000000000000000000000000000000000081526004016106a19061227a565b60405180910390fd5b6106b48383611078565b505050565b6106ca6106c4611070565b82611131565b610709576040517f08c379a0000000000000000000000000000000000000000000000000000000008152600401610700906123ba565b60405180910390fd5b61071483838361120f565b505050565b61073483838360405180602001604052806000815250610cef565b505050565b610741611070565b73ffffffffffffffffffffffffffffffffffffffff1661075f610ab2565b73ffffffffffffffffffffffffffffffffffffffff16146107b5576040517f08c379a00000000000000000000000000000000000000000000000000000000081526004016107ac9061231a565b60405180910390fd5b80600860006101000a81548173ffffffffffffffffffffffffffffffffffffffff021916908373ffffffffffffffffffffffffffffffffffffffff16021790555050565b6000806002600084815260200190815260200160002060009054906101000a900473ffffffffffffffffffffffffffffffffffffffff169050600073ffffffffffffffffffffffffffffffffffffffff168173ffffffffffffffffffffffffffffffffffffffff1614156108a2576040517f08c379a0000000000000000000000000000000000000000000000000000000008152600401610899906122ba565b60405180910390fd5b80915050919050565b3373ffffffffffffffffffffffffffffffffffffffff16600860009054906101000a900473ffffffffffffffffffffffffffffffffffffffff1673ffffffffffffffffffffffffffffffffffffffff161461093b576040517f08c379a00000000000000000000000000000000000000000000000000000000081526004016109329061237a565b60405180910390fd5b6000610947600761146b565b90506109538282611479565b61095d6007610f84565b5050565b600061096d600761146b565b905090565b60008073ffffffffffffffffffffffffffffffffffffffff168273ffffffffffffffffffffffffffffffffffffffff1614156109e3576040517f08c379a00000000000000000000000000000000000000000000000000000000081526004016109da9061229a565b60405180910390fd5b600360008373ffffffffffffffffffffffffffffffffffffffff1673ffffffffffffffffffffffffffffffffffffffff168152602001908152602001600020549050919050565b610a32611070565b73ffffffffffffffffffffffffffffffffffffffff16610a50610ab2565b73ffffffffffffffffffffffffffffffffffffffff1614610aa6576040517f08c379a0000000000000000000000000000000000000000000000000000000008152600401610a9d9061231a565b60405180910390fd5b610ab06000611647565b565b6000600660009054906101000a900473ffffffffffffffffffffffffffffffffffffffff16905090565b606060018054610aeb906125ff565b80601f0160208091040260200160405190810160405280929190818152602001828054610b17906125ff565b8015610b645780601f10610b3957610100808354040283529160200191610b64565b820191906000526020600020905b815481529060010190602001808311610b4757829003601f168201915b5050505050905090565b610b76611070565b73ffffffffffffffffffffffffffffffffffffffff168273ffffffffffffffffffffffffffffffffffffffff161415610be4576040517f08c379a0000000000000000000000000000000000000000000000000000000008152600401610bdb9061223a565b60405180910390fd5b8060056000610bf1611070565b73ffffffffffffffffffffffffffffffffffffffff1673ffffffffffffffffffffffffffffffffffffffff16815260200190815260200160002060008473ffffffffffffffffffffffffffffffffffffffff1673ffffffffffffffffffffffffffffffffffffffff16815260200190815260200160002060006101000a81548160ff0219169083151502179055508173ffffffffffffffffffffffffffffffffffffffff16610c9e611070565b73ffffffffffffffffffffffffffffffffffffffff167f17307eab39ab6107e8899845ad3d59bd9653f200f220920489ca2b5937696c3183604051610ce3919061217d565b60405180910390a35050565b610d00610cfa611070565b83611131565b610d3f576040517f08c379a0000000000000000000000000000000000000000000000000000000008152600401610d36906123ba565b60405180910390fd5b610d4b8484848461170d565b50505050565b6060610d5c82611004565b610d9b576040517f08c379a0000000000000000000000000000000000000000000000000000000008152600401610d929061235a565b60405180910390fd5b6000610da5611769565b90506000815111610dc55760405180602001604052806000815250610df0565b80610dcf84611780565b604051602001610de09291906120f2565b6040516020818303038152906040525b915050919050565b6000600560008473ffffffffffffffffffffffffffffffffffffffff1673ffffffffffffffffffffffffffffffffffffffff16815260200190815260200160002060008373ffffffffffffffffffffffffffffffffffffffff1673ffffffffffffffffffffffffffffffffffffffff16815260200190815260200160002060009054906101000a900460ff16905092915050565b610e94611070565b73ffffffffffffffffffffffffffffffffffffffff16610eb2610ab2565b73ffffffffffffffffffffffffffffffffffffffff1614610f08576040517f08c379a0000000000000000000000000000000000000000000000000000000008152600401610eff9061231a565b60405180910390fd5b600073ffffffffffffffffffffffffffffffffffffffff168173ffffffffffffffffffffffffffffffffffffffff161415610f78576040517f08c379a0000000000000000000000000000000000000000000000000000000008152600401610f6f906121da565b60405180910390fd5b610f8181611647565b50565b6001816000016000828254019250508190555050565b60007f01ffc9a7000000000000000000000000000000000000000000000000000000007bffffffffffffffffffffffffffffffffffffffffffffffffffffffff1916827bffffffffffffffffffffffffffffffffffffffffffffffffffffffff1916149050919050565b60008073ffffffffffffffffffffffffffffffffffffffff166002600084815260200190815260200160002060009054906101000a900473ffffffffffffffffffffffffffffffffffffffff1673ffffffffffffffffffffffffffffffffffffffff1614159050919050565b600033905090565b816004600083815260200190815260200160002060006101000a81548173ffffffffffffffffffffffffffffffffffffffff021916908373ffffffffffffffffffffffffffffffffffffffff160217905550808273ffffffffffffffffffffffffffffffffffffffff166110eb836107f9565b73ffffffffffffffffffffffffffffffffffffffff167f8c5be1e5ebec7d5bd14f71427d1e84f3dd0314c0f7b2291e5b200ac8c7c3b92560405160405180910390a45050565b600061113c82611004565b61117b576040517f08c379a00000000000000000000000000000000000000000000000000000000081526004016111729061225a565b60405180910390fd5b6000611186836107f9565b90508073ffffffffffffffffffffffffffffffffffffffff168473ffffffffffffffffffffffffffffffffffffffff1614806111f557508373ffffffffffffffffffffffffffffffffffffffff166111dd8461051c565b73ffffffffffffffffffffffffffffffffffffffff16145b8061120657506112058185610df8565b5b91505092915050565b8273ffffffffffffffffffffffffffffffffffffffff1661122f826107f9565b73ffffffffffffffffffffffffffffffffffffffff1614611285576040517f08c379a000000000000000000000000000000000000000000000000000000000815260040161127c9061233a565b60405180910390fd5b600073ffffffffffffffffffffffffffffffffffffffff168273ffffffffffffffffffffffffffffffffffffffff1614156112f5576040517f08c379a00000000000000000000000000000000000000000000000000000000081526004016112ec9061221a565b60405180910390fd5b61130083838361192d565b61130b600082611078565b6001600360008573ffffffffffffffffffffffffffffffffffffffff1673ffffffffffffffffffffffffffffffffffffffff168152602001908152602001600020600082825461135b9190612515565b925050819055506001600360008473ffffffffffffffffffffffffffffffffffffffff1673ffffffffffffffffffffffffffffffffffffffff16815260200190815260200160002060008282546113b2919061248e565b92505081905550816002600083815260200190815260200160002060006101000a81548173ffffffffffffffffffffffffffffffffffffffff021916908373ffffffffffffffffffffffffffffffffffffffff160217905550808273ffffffffffffffffffffffffffffffffffffffff168473ffffffffffffffffffffffffffffffffffffffff167fddf252ad1be2c89b69c2b068fc378daa952ba7f163c4a11628f55a4df523b3ef60405160405180910390a4505050565b600081600001549050919050565b600073ffffffffffffffffffffffffffffffffffffffff168273ffffffffffffffffffffffffffffffffffffffff1614156114e9576040517f08c379a00000000000000000000000000000000000000000000000000000000081526004016114e0906122da565b60405180910390fd5b6114f281611004565b15611532576040517f08c379a0000000000000000000000000000000000000000000000000000000008152600401611529906121fa565b60405180910390fd5b61153e6000838361192d565b6001600360008473ffffffffffffffffffffffffffffffffffffffff1673ffffffffffffffffffffffffffffffffffffffff168152602001908152602001600020600082825461158e919061248e565b92505081905550816002600083815260200190815260200160002060006101000a81548173ffffffffffffffffffffffffffffffffffffffff021916908373ffffffffffffffffffffffffffffffffffffffff160217905550808273ffffffffffffffffffffffffffffffffffffffff16600073ffffffffffffffffffffffffffffffffffffffff167fddf252ad1be2c89b69c2b068fc378daa952ba7f163c4a11628f55a4df523b3ef60405160405180910390a45050565b6000600660009054906101000a900473ffffffffffffffffffffffffffffffffffffffff16905081600660006101000a81548173ffffffffffffffffffffffffffffffffffffffff021916908373ffffffffffffffffffffffffffffffffffffffff1602179055508173ffffffffffffffffffffffffffffffffffffffff168173ffffffffffffffffffffffffffffffffffffffff167f8be0079c531659141344cd1fd0a4f28419497f9722a3daafe3b4186f6b6457e060405160405180910390a35050565b61171884848461120f565b61172484848484611932565b611763576040517f08c379a000000000000000000000000000000000000000000000000000000000815260040161175a906121ba565b60405180910390fd5b50505050565b606060405180602001604052806000815250905090565b606060008214156117c8576040518060400160405280600181526020017f30000000000000000000000000000000000000000000000000000000000000008152509050611928565b600082905060005b600082146117fa5780806117e390612662565b915050600a826117f391906124e4565b91506117d0565b60008167ffffffffffffffff81111561183c577f4e487b7100000000000000000000000000000000000000000000000000000000600052604160045260246000fd5b6040519080825280601f01601f19166020018201604052801561186e5781602001600182028036833780820191505090505b5090505b60008514611921576001826118879190612515565b9150600a8561189691906126ab565b60306118a2919061248e565b60f81b8183815181106118de577f4e487b7100000000000000000000000000000000000000000000000000000000600052603260045260246000fd5b60200101907effffffffffffffffffffffffffffffffffffffffffffffffffffffffffffff1916908160001a905350600a8561191a91906124e4565b9450611872565b8093505050505b919050565b505050565b60006119538473ffffffffffffffffffffffffffffffffffffffff16611ac9565b15611abc578373ffffffffffffffffffffffffffffffffffffffff1663150b7a0261197c611070565b8786866040518563ffffffff1660e01b815260040161199e9493929190612131565b602060405180830381600087803b1580156119b857600080fd5b505af19250505080156119e957506040513d601f19601f820116820180604052508101906119e69190611d7d565b60015b611a6c573d8060008114611a19576040519150601f19603f3d011682016040523d82523d6000602084013e611a1e565b606091505b50600081511415611a64576040517f08c379a0000000000000000000000000000000000000000000000000000000008152600401611a5b906121ba565b60405180910390fd5b805181602001fd5b63150b7a0260e01b7bffffffffffffffffffffffffffffffffffffffffffffffffffffffff1916817bffffffffffffffffffffffffffffffffffffffffffffffffffffffff191614915050611ac1565b600190505b949350505050565b600080823b905060008111915050919050565b6000611aef611aea8461241a565b6123f5565b905082815260208101848484011115611b0757600080fd5b611b128482856125bd565b509392505050565b600081359050611b2981612c2a565b92915050565b600081359050611b3e81612c41565b92915050565b600081359050611b5381612c58565b92915050565b600081519050611b6881612c58565b92915050565b600082601f830112611b7f57600080fd5b8135611b8f848260208601611adc565b91505092915050565b600081359050611ba781612c6f565b92915050565b600060208284031215611bbf57600080fd5b6000611bcd84828501611b1a565b91505092915050565b60008060408385031215611be957600080fd5b6000611bf785828601611b1a565b9250506020611c0885828601611b1a565b9150509250929050565b600080600060608486031215611c2757600080fd5b6000611c3586828701611b1a565b9350506020611c4686828701611b1a565b9250506040611c5786828701611b98565b9150509250925092565b60008060008060808587031215611c7757600080fd5b6000611c8587828801611b1a565b9450506020611c9687828801611b1a565b9350506040611ca787828801611b98565b925050606085013567ffffffffffffffff811115611cc457600080fd5b611cd087828801611b6e565b91505092959194509250565b60008060408385031215611cef57600080fd5b6000611cfd85828601611b1a565b9250506020611d0e85828601611b2f565b9150509250929050565b60008060408385031215611d2b57600080fd5b6000611d3985828601611b1a565b9250506020611d4a85828601611b98565b9150509250929050565b600060208284031215611d6657600080fd5b6000611d7484828501611b44565b91505092915050565b600060208284031215611d8f57600080fd5b6000611d9d84828501611b59565b91505092915050565b600060208284031215611db857600080fd5b6000611dc684828501611b98565b91505092915050565b611dd881612549565b82525050565b611de78161255b565b82525050565b6000611df88261244b565b611e028185612461565b9350611e128185602086016125cc565b611e1b81612798565b840191505092915050565b6000611e3182612456565b611e3b8185612472565b9350611e4b8185602086016125cc565b611e5481612798565b840191505092915050565b6000611e6a82612456565b611e748185612483565b9350611e848185602086016125cc565b80840191505092915050565b6000611e9d603283612472565b9150611ea8826127a9565b604082019050919050565b6000611ec0602683612472565b9150611ecb826127f8565b604082019050919050565b6000611ee3601c83612472565b9150611eee82612847565b602082019050919050565b6000611f06602483612472565b9150611f1182612870565b604082019050919050565b6000611f29601983612472565b9150611f34826128bf565b602082019050919050565b6000611f4c602c83612472565b9150611f57826128e8565b604082019050919050565b6000611f6f603883612472565b9150611f7a82612937565b604082019050919050565b6000611f92602a83612472565b9150611f9d82612986565b604082019050919050565b6000611fb5602983612472565b9150611fc0826129d5565b604082019050919050565b6000611fd8602083612472565b9150611fe382612a24565b602082019050919050565b6000611ffb602c83612472565b915061200682612a4d565b604082019050919050565b600061201e602083612472565b915061202982612a9c565b602082019050919050565b6000612041602983612472565b915061204c82612ac5565b604082019050919050565b6000612064602f83612472565b915061206f82612b14565b604082019050919050565b6000612087602083612472565b915061209282612b63565b602082019050919050565b60006120aa602183612472565b91506120b582612b8c565b604082019050919050565b60006120cd603183612472565b91506120d882612bdb565b604082019050919050565b6120ec816125b3565b82525050565b60006120fe8285611e5f565b915061210a8284611e5f565b91508190509392505050565b600060208201905061212b6000830184611dcf565b92915050565b60006080820190506121466000830187611dcf565b6121536020830186611dcf565b61216060408301856120e3565b81810360608301526121728184611ded565b905095945050505050565b60006020820190506121926000830184611dde565b92915050565b600060208201905081810360008301526121b28184611e26565b905092915050565b600060208201905081810360008301526121d381611e90565b9050919050565b600060208201905081810360008301526121f381611eb3565b9050919050565b6000602082019050818103600083015261221381611ed6565b9050919050565b6000602082019050818103600083015261223381611ef9565b9050919050565b6000602082019050818103600083015261225381611f1c565b9050919050565b6000602082019050818103600083015261227381611f3f565b9050919050565b6000602082019050818103600083015261229381611f62565b9050919050565b600060208201905081810360008301526122b381611f85565b9050919050565b600060208201905081810360008301526122d381611fa8565b9050919050565b600060208201905081810360008301526122f381611fcb565b9050919050565b6000602082019050818103600083015261231381611fee565b9050919050565b6000602082019050818103600083015261233381612011565b9050919050565b6000602082019050818103600083015261235381612034565b9050919050565b6000602082019050818103600083015261237381612057565b9050919050565b600060208201905081810360008301526123938161207a565b9050919050565b600060208201905081810360008301526123b38161209d565b9050919050565b600060208201905081810360008301526123d3816120c0565b9050919050565b60006020820190506123ef60008301846120e3565b92915050565b60006123ff612410565b905061240b8282612631565b919050565b6000604051905090565b600067ffffffffffffffff82111561243557612434612769565b5b61243e82612798565b9050602081019050919050565b600081519050919050565b600081519050919050565b600082825260208201905092915050565b600082825260208201905092915050565b600081905092915050565b6000612499826125b3565b91506124a4836125b3565b9250827fffffffffffffffffffffffffffffffffffffffffffffffffffffffffffffffff038211156124d9576124d86126dc565b5b828201905092915050565b60006124ef826125b3565b91506124fa836125b3565b92508261250a5761250961270b565b5b828204905092915050565b6000612520826125b3565b915061252b836125b3565b92508282101561253e5761253d6126dc565b5b828203905092915050565b600061255482612593565b9050919050565b60008115159050919050565b60007fffffffff0000000000000000000000000000000000000000000000000000000082169050919050565b600073ffffffffffffffffffffffffffffffffffffffff82169050919050565b6000819050919050565b82818337600083830152505050565b60005b838110156125ea5780820151818401526020810190506125cf565b838111156125f9576000848401525b50505050565b6000600282049050600182168061261757607f821691505b6020821081141561262b5761262a61273a565b5b50919050565b61263a82612798565b810181811067ffffffffffffffff8211171561265957612658612769565b5b80604052505050565b600061266d826125b3565b91507fffffffffffffffffffffffffffffffffffffffffffffffffffffffffffffffff8214156126a05761269f6126dc565b5b600182019050919050565b60006126b6826125b3565b91506126c1836125b3565b9250826126d1576126d061270b565b5b828206905092915050565b7f4e487b7100000000000000000000000000000000000000000000000000000000600052601160045260246000fd5b7f4e487b7100000000000000000000000000000000000000000000000000000000600052601260045260246000fd5b7f4e487b7100000000000000000000000000000000000000000000000000000000600052602260045260246000fd5b7f4e487b7100000000000000000000000000000000000000000000000000000000600052604160045260246000fd5b6000601f19601f8301169050919050565b7f4552433732313a207472616e7366657220746f206e6f6e20455243373231526560008201527f63656976657220696d706c656d656e7465720000000000000000000000000000602082015250565b7f4f776e61626c653a206e6577206f776e657220697320746865207a65726f206160008201527f6464726573730000000000000000000000000000000000000000000000000000602082015250565b7f4552433732313a20746f6b656e20616c7265616479206d696e74656400000000600082015250565b7f4552433732313a207472616e7366657220746f20746865207a65726f2061646460008201527f7265737300000000000000000000000000000000000000000000000000000000602082015250565b7f4552433732313a20617070726f766520746f2063616c6c657200000000000000600082015250565b7f4552433732313a206f70657261746f7220717565727920666f72206e6f6e657860008201527f697374656e7420746f6b656e0000000000000000000000000000000000000000602082015250565b7f4552433732313a20617070726f76652063616c6c6572206973206e6f74206f7760008201527f6e6572206e6f7220617070726f76656420666f7220616c6c0000000000000000602082015250565b7f4552433732313a2062616c616e636520717565727920666f7220746865207a6560008201527f726f206164647265737300000000000000000000000000000000000000000000602082015250565b7f4552433732313a206f776e657220717565727920666f72206e6f6e657869737460008201527f656e7420746f6b656e0000000000000000000000000000000000000000000000602082015250565b7f4552433732313a206d696e7420746f20746865207a65726f2061646472657373600082015250565b7f4552433732313a20617070726f76656420717565727920666f72206e6f6e657860008201527f697374656e7420746f6b656e0000000000000000000000000000000000000000602082015250565b7f4f776e61626c653a2063616c6c6572206973206e6f7420746865206f776e6572600082015250565b7f4552433732313a207472616e73666572206f6620746f6b656e2074686174206960008201527f73206e6f74206f776e0000000000000000000000000000000000000000000000602082015250565b7f4552433732314d657461646174613a2055524920717565727920666f72206e6f60008201527f6e6578697374656e7420746f6b656e0000000000000000000000000000000000602082015250565b7f4f6e6c7920466163746f72792063616e2063616c6c20746865206d6574686f64600082015250565b7f4552433732313a20617070726f76616c20746f2063757272656e74206f776e6560008201527f7200000000000000000000000000000000000000000000000000000000000000602082015250565b7f4552433732313a207472616e736665722063616c6c6572206973206e6f74206f60008201527f776e6572206e6f7220617070726f766564000000000000000000000000000000602082015250565b612c3381612549565b8114612c3e57600080fd5b50565b612c4a8161255b565b8114612c5557600080fd5b50565b612c6181612567565b8114612c6c57600080fd5b50565b612c78816125b3565b8114612c8357600080fd5b5056fea2646970667358221220f6b49165e498157f999ef1769f71b10190aa08c79225bb2e5136ce83d524de3b64736f6c63430008040033",
  "linkReferences": {},
  "deployedLinkReferences": {}
}