{
  "_format": "hh-sol-artifact-1",
  "contractName": "Proxy",
  "sourceName": "contracts/Proxy.sol",
  "abi": [
    {
      "inputs": [
        {
          "internalType": "address",
          "name": "_logicContract",
          "type": "address"
        },
        {
          "internalType": "address",
          "name": "_token",
          "type": "address"
        }
      ],
      "stateMutability": "nonpayable",
      "type": "constructor"
    },
    {
      "anonymous": false,
      "inputs": [
        {
          "indexed": true,
          "internalType": "address",
          "name": "previousOwner",
          "type": "address"
        },
        {
          "indexed": true,
          "internalType": "address",
          "name": "newOwner",
          "type": "address"
        }
      ],
      "name": "OwnershipTransferred",
      "type": "event"
    },
    {
      "stateMutability": "payable",
      "type": "fallback"
    },
    {
      "inputs": [],
      "name": "otherContractAddress",
      "outputs": [
        {
          "internalType": "address",
          "name": "",
          "type": "address"
        }
      ],
      "stateMutability": "view",
      "type": "function"
    },
    {
      "inputs": [],
      "name": "owner",
      "outputs": [
        {
          "internalType": "address",
          "name": "",
          "type": "address"
        }
      ],
      "stateMutability": "view",
      "type": "function"
    },
    {
      "inputs": [],
      "name": "renounceOwnership",
      "outputs": [],
      "stateMutability": "nonpayable",
      "type": "function"
    },
    {
      "inputs": [
        {
          "internalType": "address",
          "name": "_otherContract",
          "type": "address"
        }
      ],
      "name": "setOtherAddress",
      "outputs": [],
      "stateMutability": "nonpayable",
      "type": "function"
    },
    {
      "inputs": [
        {
          "internalType": "address",
          "name": "_titanTokenAdd",
          "type": "address"
        }
      ],
      "name": "setTitanToken",
      "outputs": [],
      "stateMutability": "nonpayable",
      "type": "function"
    },
    {
      "inputs": [],
      "name": "token",
      "outputs": [
        {
          "internalType": "contract TitanToken",
          "name": "",
          "type": "address"
        }
      ],
      "stateMutability": "view",
      "type": "function"
    },
    {
      "inputs": [
        {
          "internalType": "address",
          "name": "newOwner",
          "type": "address"
        }
      ],
      "name": "transferOwnership",
      "outputs": [],
      "stateMutability": "nonpayable",
      "type": "function"
    }
  ],
  "bytecode": "0x608060405234801561001057600080fd5b50604051610ae3380380610ae3833981810160405281019061003291906101dc565b61004e61004361007360201b60201c565b61007b60201b60201c565b61005d8261013f60201b60201c565b61006c8161018360201b60201c565b5050610261565b600033905090565b60008060009054906101000a900473ffffffffffffffffffffffffffffffffffffffff169050816000806101000a81548173ffffffffffffffffffffffffffffffffffffffff021916908373ffffffffffffffffffffffffffffffffffffffff1602179055508173ffffffffffffffffffffffffffffffffffffffff168173ffffffffffffffffffffffffffffffffffffffff167f8be0079c531659141344cd1fd0a4f28419497f9722a3daafe3b4186f6b6457e060405160405180910390a35050565b80600160006101000a81548173ffffffffffffffffffffffffffffffffffffffff021916908373ffffffffffffffffffffffffffffffffffffffff16021790555050565b80600260006101000a81548173ffffffffffffffffffffffffffffffffffffffff021916908373ffffffffffffffffffffffffffffffffffffffff16021790555050565b6000815190506101d68161024a565b92915050565b600080604083850312156101ef57600080fd5b60006101fd858286016101c7565b925050602061020e858286016101c7565b9150509250929050565b60006102238261022a565b9050919050565b600073ffffffffffffffffffffffffffffffffffffffff82169050919050565b61025381610218565b811461025e57600080fd5b50565b610873806102706000396000f3fe6080604052600436106100745760003560e01c8063c0a15e991161004e578063c0a15e991461012e578063f2fde38b14610159578063f4d3698614610182578063fc0c546a146101ab57610075565b806357cea0c0146100c3578063715018a6146100ec5780638da5cb5b1461010357610075565b5b6000600160009054906101000a900473ffffffffffffffffffffffffffffffffffffffff16905060405136600082376000803683855af43d806000843e81600081146100bf578184f35b8184fd5b3480156100cf57600080fd5b506100ea60048036038101906100e59190610644565b6101d6565b005b3480156100f857600080fd5b5061010161025e565b005b34801561010f57600080fd5b506101186102e6565b60405161012591906106d1565b60405180910390f35b34801561013a57600080fd5b5061014361030f565b60405161015091906106d1565b60405180910390f35b34801561016557600080fd5b50610180600480360381019061017b9190610644565b610335565b005b34801561018e57600080fd5b506101a960048036038101906101a49190610644565b61042d565b005b3480156101b757600080fd5b506101c06104b5565b6040516101cd91906106ec565b60405180910390f35b6101de6104db565b73ffffffffffffffffffffffffffffffffffffffff166101fc6102e6565b73ffffffffffffffffffffffffffffffffffffffff1614610252576040517f08c379a000000000000000000000000000000000000000000000000000000000815260040161024990610727565b60405180910390fd5b61025b816104e3565b50565b6102666104db565b73ffffffffffffffffffffffffffffffffffffffff166102846102e6565b73ffffffffffffffffffffffffffffffffffffffff16146102da576040517f08c379a00000000000000000000000000000000000000000000000000000000081526004016102d190610727565b60405180910390fd5b6102e46000610527565b565b60008060009054906101000a900473ffffffffffffffffffffffffffffffffffffffff16905090565b600160009054906101000a900473ffffffffffffffffffffffffffffffffffffffff1681565b61033d6104db565b73ffffffffffffffffffffffffffffffffffffffff1661035b6102e6565b73ffffffffffffffffffffffffffffffffffffffff16146103b1576040517f08c379a00000000000000000000000000000000000000000000000000000000081526004016103a890610727565b60405180910390fd5b600073ffffffffffffffffffffffffffffffffffffffff168173ffffffffffffffffffffffffffffffffffffffff161415610421576040517f08c379a000000000000000000000000000000000000000000000000000000000815260040161041890610707565b60405180910390fd5b61042a81610527565b50565b6104356104db565b73ffffffffffffffffffffffffffffffffffffffff166104536102e6565b73ffffffffffffffffffffffffffffffffffffffff16146104a9576040517f08c379a00000000000000000000000000000000000000000000000000000000081526004016104a090610727565b60405180910390fd5b6104b2816105eb565b50565b600260009054906101000a900473ffffffffffffffffffffffffffffffffffffffff1681565b600033905090565b80600260006101000a81548173ffffffffffffffffffffffffffffffffffffffff021916908373ffffffffffffffffffffffffffffffffffffffff16021790555050565b60008060009054906101000a900473ffffffffffffffffffffffffffffffffffffffff169050816000806101000a81548173ffffffffffffffffffffffffffffffffffffffff021916908373ffffffffffffffffffffffffffffffffffffffff1602179055508173ffffffffffffffffffffffffffffffffffffffff168173ffffffffffffffffffffffffffffffffffffffff167f8be0079c531659141344cd1fd0a4f28419497f9722a3daafe3b4186f6b6457e060405160405180910390a35050565b80600160006101000a81548173ffffffffffffffffffffffffffffffffffffffff021916908373ffffffffffffffffffffffffffffffffffffffff16021790555050565b60008135905061063e81610826565b92915050565b60006020828403121561065657600080fd5b60006106648482850161062f565b91505092915050565b61067681610758565b82525050565b6106858161078a565b82525050565b6000610698602683610747565b91506106a3826107ae565b604082019050919050565b60006106bb602083610747565b91506106c6826107fd565b602082019050919050565b60006020820190506106e6600083018461066d565b92915050565b6000602082019050610701600083018461067c565b92915050565b600060208201905081810360008301526107208161068b565b9050919050565b60006020820190508181036000830152610740816106ae565b9050919050565b600082825260208201905092915050565b60006107638261076a565b9050919050565b600073ffffffffffffffffffffffffffffffffffffffff82169050919050565b60006107958261079c565b9050919050565b60006107a78261076a565b9050919050565b7f4f776e61626c653a206e6577206f776e657220697320746865207a65726f206160008201527f6464726573730000000000000000000000000000000000000000000000000000602082015250565b7f4f776e61626c653a2063616c6c6572206973206e6f7420746865206f776e6572600082015250565b61082f81610758565b811461083a57600080fd5b5056fea26469706673582212205d3c7c67c945c6c51e145d3150115a5cb0bdcb1711e3192dd886f0225673c47a64736f6c63430008040033",
  "linkReferences": {},
  "deployedLinkReferences": {}
}