{
  "_format": "hh-sol-artifact-1",
  "contractName": "FactoryV1",
  "sourceName": "contracts/FactoryV1.sol",
  "abi": [
    {
      "anonymous": false,
      "inputs": [
        {
          "indexed": true,
          "internalType": "address",
          "name": "previousOwner",
          "type": "address"
        },
        {
          "indexed": true,
          "internalType": "address",
          "name": "newOwner",
          "type": "address"
        }
      ],
      "name": "OwnershipTransferred",
      "type": "event"
    },
    {
      "anonymous": false,
      "inputs": [
        {
          "indexed": false,
          "internalType": "address",
          "name": "_to",
          "type": "address"
        },
        {
          "indexed": false,
          "internalType": "uint256",
          "name": "tokenId",
          "type": "uint256"
        },
        {
          "indexed": false,
          "internalType": "uint32",
          "name": "power",
          "type": "uint32"
        },
        {
          "indexed": false,
          "internalType": "uint32",
          "name": "height",
          "type": "uint32"
        }
      ],
      "name": "TitanCreated",
      "type": "event"
    },
    {
      "inputs": [],
      "name": "FEE",
      "outputs": [
        {
          "internalType": "uint256",
          "name": "",
          "type": "uint256"
        }
      ],
      "stateMutability": "view",
      "type": "function"
    },
    {
      "inputs": [
        {
          "internalType": "uint32",
          "name": "power",
          "type": "uint32"
        },
        {
          "internalType": "uint32",
          "name": "height",
          "type": "uint32"
        }
      ],
      "name": "createNewTitans",
      "outputs": [],
      "stateMutability": "payable",
      "type": "function"
    },
    {
      "inputs": [
        {
          "internalType": "uint256",
          "name": "",
          "type": "uint256"
        }
      ],
      "name": "idToTitan",
      "outputs": [
        {
          "internalType": "uint32",
          "name": "power",
          "type": "uint32"
        },
        {
          "internalType": "uint32",
          "name": "height",
          "type": "uint32"
        }
      ],
      "stateMutability": "view",
      "type": "function"
    },
    {
      "inputs": [],
      "name": "otherContractAddress",
      "outputs": [
        {
          "internalType": "address",
          "name": "",
          "type": "address"
        }
      ],
      "stateMutability": "view",
      "type": "function"
    },
    {
      "inputs": [],
      "name": "owner",
      "outputs": [
        {
          "internalType": "address",
          "name": "",
          "type": "address"
        }
      ],
      "stateMutability": "view",
      "type": "function"
    },
    {
      "inputs": [],
      "name": "renounceOwnership",
      "outputs": [],
      "stateMutability": "nonpayable",
      "type": "function"
    },
    {
      "inputs": [],
      "name": "token",
      "outputs": [
        {
          "internalType": "contract TitanToken",
          "name": "",
          "type": "address"
        }
      ],
      "stateMutability": "view",
      "type": "function"
    },
    {
      "inputs": [
        {
          "internalType": "address",
          "name": "newOwner",
          "type": "address"
        }
      ],
      "name": "transferOwnership",
      "outputs": [],
      "stateMutability": "nonpayable",
      "type": "function"
    }
  ],
  "bytecode": "0x608060405234801561001057600080fd5b5061002d61002261003260201b60201c565b61003a60201b60201c565b6100fe565b600033905090565b60008060009054906101000a900473ffffffffffffffffffffffffffffffffffffffff169050816000806101000a81548173ffffffffffffffffffffffffffffffffffffffff021916908373ffffffffffffffffffffffffffffffffffffffff1602179055508173ffffffffffffffffffffffffffffffffffffffff168173ffffffffffffffffffffffffffffffffffffffff167f8be0079c531659141344cd1fd0a4f28419497f9722a3daafe3b4186f6b6457e060405160405180910390a35050565b610d3f8061010d6000396000f3fe60806040526004361061007b5760003560e01c8063c57981b51161004e578063c57981b51461012b578063f2fde38b14610156578063f7fce2f51461017f578063fc0c546a1461019b5761007b565b80634ecce57f14610080578063715018a6146100be5780638da5cb5b146100d5578063c0a15e9914610100575b600080fd5b34801561008c57600080fd5b506100a760048036038101906100a29190610852565b6101c6565b6040516100b5929190610b01565b60405180910390f35b3480156100ca57600080fd5b506100d361020a565b005b3480156100e157600080fd5b506100ea610292565b6040516100f791906109cb565b60405180910390f35b34801561010c57600080fd5b506101156102bb565b60405161012291906109cb565b60405180910390f35b34801561013757600080fd5b506101406102e1565b60405161014d9190610ae6565b60405180910390f35b34801561016257600080fd5b5061017d60048036038101906101789190610829565b6102ed565b005b610199600480360381019061019491906108a4565b6103e5565b005b3480156101a757600080fd5b506101b06106e3565b6040516101bd9190610a2b565b60405180910390f35b60036020528060005260406000206000915090508060000160009054906101000a900463ffffffff16908060000160049054906101000a900463ffffffff16905082565b610212610709565b73ffffffffffffffffffffffffffffffffffffffff16610230610292565b73ffffffffffffffffffffffffffffffffffffffff1614610286576040517f08c379a000000000000000000000000000000000000000000000000000000000815260040161027d90610aa6565b60405180910390fd5b6102906000610711565b565b60008060009054906101000a900473ffffffffffffffffffffffffffffffffffffffff16905090565b600160009054906101000a900473ffffffffffffffffffffffffffffffffffffffff1681565b670de0b6b3a764000081565b6102f5610709565b73ffffffffffffffffffffffffffffffffffffffff16610313610292565b73ffffffffffffffffffffffffffffffffffffffff1614610369576040517f08c379a000000000000000000000000000000000000000000000000000000000815260040161036090610aa6565b60405180910390fd5b600073ffffffffffffffffffffffffffffffffffffffff168173ffffffffffffffffffffffffffffffffffffffff1614156103d9576040517f08c379a00000000000000000000000000000000000000000000000000000000081526004016103d090610a46565b60405180910390fd5b6103e281610711565b50565b6101f48263ffffffff1611158015610404575060148263ffffffff1610155b610443576040517f08c379a000000000000000000000000000000000000000000000000000000000815260040161043a90610a86565b60405180910390fd5b60058163ffffffff1610158015610461575060c88163ffffffff1611155b6104a0576040517f08c379a000000000000000000000000000000000000000000000000000000000815260040161049790610ac6565b60405180910390fd5b670de0b6b3a76400003410156104eb576040517f08c379a00000000000000000000000000000000000000000000000000000000081526004016104e290610a66565b60405180910390fd5b6000600260009054906101000a900473ffffffffffffffffffffffffffffffffffffffff1673ffffffffffffffffffffffffffffffffffffffff16636c1438626040518163ffffffff1660e01b815260040160206040518083038186803b15801561055557600080fd5b505afa158015610569573d6000803e3d6000fd5b505050506040513d601f19601f8201168201806040525081019061058d919061087b565b905060405180604001604052808463ffffffff1681526020018363ffffffff168152506003600083815260200190815260200160002060008201518160000160006101000a81548163ffffffff021916908363ffffffff16021790555060208201518160000160046101000a81548163ffffffff021916908363ffffffff160217905550905050600260009054906101000a900473ffffffffffffffffffffffffffffffffffffffff1673ffffffffffffffffffffffffffffffffffffffff16636a627842336040518263ffffffff1660e01b815260040161066f91906109cb565b600060405180830381600087803b15801561068957600080fd5b505af115801561069d573d6000803e3d6000fd5b505050507f76eab09f35b244d6d9f6579c10205d1b7e0cc3371e9ced6bbaa84102959197c9338285856040516106d694939291906109e6565b60405180910390a1505050565b600260009054906101000a900473ffffffffffffffffffffffffffffffffffffffff1681565b600033905090565b60008060009054906101000a900473ffffffffffffffffffffffffffffffffffffffff169050816000806101000a81548173ffffffffffffffffffffffffffffffffffffffff021916908373ffffffffffffffffffffffffffffffffffffffff1602179055508173ffffffffffffffffffffffffffffffffffffffff168173ffffffffffffffffffffffffffffffffffffffff167f8be0079c531659141344cd1fd0a4f28419497f9722a3daafe3b4186f6b6457e060405160405180910390a35050565b6000813590506107e481610cc4565b92915050565b6000813590506107f981610cdb565b92915050565b60008151905061080e81610cdb565b92915050565b60008135905061082381610cf2565b92915050565b60006020828403121561083b57600080fd5b6000610849848285016107d5565b91505092915050565b60006020828403121561086457600080fd5b6000610872848285016107ea565b91505092915050565b60006020828403121561088d57600080fd5b600061089b848285016107ff565b91505092915050565b600080604083850312156108b757600080fd5b60006108c585828601610814565b92505060206108d685828601610814565b9150509250929050565b6108e981610b3b565b82525050565b6108f881610b87565b82525050565b600061090b602683610b2a565b915061091682610bab565b604082019050919050565b600061092e601c83610b2a565b915061093982610bfa565b602082019050919050565b6000610951602583610b2a565b915061095c82610c23565b604082019050919050565b6000610974602083610b2a565b915061097f82610c72565b602082019050919050565b6000610997601f83610b2a565b91506109a282610c9b565b602082019050919050565b6109b681610b6d565b82525050565b6109c581610b77565b82525050565b60006020820190506109e060008301846108e0565b92915050565b60006080820190506109fb60008301876108e0565b610a0860208301866109ad565b610a1560408301856109bc565b610a2260608301846109bc565b95945050505050565b6000602082019050610a4060008301846108ef565b92915050565b60006020820190508181036000830152610a5f816108fe565b9050919050565b60006020820190508181036000830152610a7f81610921565b9050919050565b60006020820190508181036000830152610a9f81610944565b9050919050565b60006020820190508181036000830152610abf81610967565b9050919050565b60006020820190508181036000830152610adf8161098a565b9050919050565b6000602082019050610afb60008301846109ad565b92915050565b6000604082019050610b1660008301856109bc565b610b2360208301846109bc565b9392505050565b600082825260208201905092915050565b6000610b4682610b4d565b9050919050565b600073ffffffffffffffffffffffffffffffffffffffff82169050919050565b6000819050919050565b600063ffffffff82169050919050565b6000610b9282610b99565b9050919050565b6000610ba482610b4d565b9050919050565b7f4f776e61626c653a206e6577206f776e657220697320746865207a65726f206160008201527f6464726573730000000000000000000000000000000000000000000000000000602082015250565b7f6e6f7420656e6f7567682045544820746f206d696e7420746f6b656e00000000600082015250565b7f706f776572206c6576656c206973206e6f74206265747765656e20323020616e60008201527f6420353030000000000000000000000000000000000000000000000000000000602082015250565b7f4f776e61626c653a2063616c6c6572206973206e6f7420746865206f776e6572600082015250565b7f686569676874206973206e6f74206265747765656e203520616e642032303000600082015250565b610ccd81610b3b565b8114610cd857600080fd5b50565b610ce481610b6d565b8114610cef57600080fd5b50565b610cfb81610b77565b8114610d0657600080fd5b5056fea2646970667358221220b8352cef9bd2b94d029bc16a4ef0a242457e06ea0ae6db94058cbbd511520f4464736f6c63430008040033",
  "linkReferences": {},
  "deployedLinkReferences": {}
}