{
  "_format": "hh-sol-artifact-1",
  "contractName": "FactoryV1",
  "sourceName": "contracts/FactoryV1.sol",
  "abi": [
    {
      "inputs": [
        {
          "internalType": "address",
          "name": "titanTokenadd",
          "type": "address"
        }
      ],
      "stateMutability": "nonpayable",
      "type": "constructor"
    },
    {
      "anonymous": false,
      "inputs": [
        {
          "indexed": true,
          "internalType": "address",
          "name": "previousOwner",
          "type": "address"
        },
        {
          "indexed": true,
          "internalType": "address",
          "name": "newOwner",
          "type": "address"
        }
      ],
      "name": "OwnershipTransferred",
      "type": "event"
    },
    {
      "anonymous": false,
      "inputs": [
        {
          "indexed": false,
          "internalType": "address",
          "name": "_to",
          "type": "address"
        },
        {
          "indexed": false,
          "internalType": "uint256",
          "name": "tokenId",
          "type": "uint256"
        },
        {
          "indexed": false,
          "internalType": "uint32",
          "name": "power",
          "type": "uint32"
        },
        {
          "indexed": false,
          "internalType": "uint32",
          "name": "height",
          "type": "uint32"
        }
      ],
      "name": "TitanCreated",
      "type": "event"
    },
    {
      "inputs": [],
      "name": "FEE",
      "outputs": [
        {
          "internalType": "uint256",
          "name": "",
          "type": "uint256"
        }
      ],
      "stateMutability": "view",
      "type": "function"
    },
    {
      "inputs": [
        {
          "internalType": "uint32",
          "name": "power",
          "type": "uint32"
        },
        {
          "internalType": "uint32",
          "name": "height",
          "type": "uint32"
        }
      ],
      "name": "createNewTitans",
      "outputs": [],
      "stateMutability": "payable",
      "type": "function"
    },
    {
      "inputs": [
        {
          "internalType": "uint256",
          "name": "",
          "type": "uint256"
        }
      ],
      "name": "idToTitan",
      "outputs": [
        {
          "internalType": "uint32",
          "name": "power",
          "type": "uint32"
        },
        {
          "internalType": "uint32",
          "name": "height",
          "type": "uint32"
        }
      ],
      "stateMutability": "view",
      "type": "function"
    },
    {
      "inputs": [],
      "name": "otherContractAddress",
      "outputs": [
        {
          "internalType": "address",
          "name": "",
          "type": "address"
        }
      ],
      "stateMutability": "view",
      "type": "function"
    },
    {
      "inputs": [],
      "name": "owner",
      "outputs": [
        {
          "internalType": "address",
          "name": "",
          "type": "address"
        }
      ],
      "stateMutability": "view",
      "type": "function"
    },
    {
      "inputs": [],
      "name": "renounceOwnership",
      "outputs": [],
      "stateMutability": "nonpayable",
      "type": "function"
    },
    {
      "inputs": [],
      "name": "token",
      "outputs": [
        {
          "internalType": "contract TitanToken",
          "name": "",
          "type": "address"
        }
      ],
      "stateMutability": "view",
      "type": "function"
    },
    {
      "inputs": [
        {
          "internalType": "address",
          "name": "newOwner",
          "type": "address"
        }
      ],
      "name": "transferOwnership",
      "outputs": [],
      "stateMutability": "nonpayable",
      "type": "function"
    }
  ],
  "bytecode": "0x60806040523480156200001157600080fd5b5060405162000fa838038062000fa883398181016040528101906200003791906200019b565b620000576200004b6200007460201b60201c565b6200007c60201b60201c565b6200006d816200014060201b620007091760201c565b5062000215565b600033905090565b60008060009054906101000a900473ffffffffffffffffffffffffffffffffffffffff169050816000806101000a81548173ffffffffffffffffffffffffffffffffffffffff021916908373ffffffffffffffffffffffffffffffffffffffff1602179055508173ffffffffffffffffffffffffffffffffffffffff168173ffffffffffffffffffffffffffffffffffffffff167f8be0079c531659141344cd1fd0a4f28419497f9722a3daafe3b4186f6b6457e060405160405180910390a35050565b80600260006101000a81548173ffffffffffffffffffffffffffffffffffffffff021916908373ffffffffffffffffffffffffffffffffffffffff16021790555050565b6000815190506200019581620001fb565b92915050565b600060208284031215620001ae57600080fd5b6000620001be8482850162000184565b91505092915050565b6000620001d482620001db565b9050919050565b600073ffffffffffffffffffffffffffffffffffffffff82169050919050565b6200020681620001c7565b81146200021257600080fd5b50565b610d8380620002256000396000f3fe60806040526004361061007b5760003560e01c8063c57981b51161004e578063c57981b51461012b578063f2fde38b14610156578063f7fce2f51461017f578063fc0c546a1461019b5761007b565b80634ecce57f14610080578063715018a6146100be5780638da5cb5b146100d5578063c0a15e9914610100575b600080fd5b34801561008c57600080fd5b506100a760048036038101906100a29190610896565b6101c6565b6040516100b5929190610b45565b60405180910390f35b3480156100ca57600080fd5b506100d361020a565b005b3480156100e157600080fd5b506100ea610292565b6040516100f79190610a0f565b60405180910390f35b34801561010c57600080fd5b506101156102bb565b6040516101229190610a0f565b60405180910390f35b34801561013757600080fd5b506101406102e1565b60405161014d9190610b2a565b60405180910390f35b34801561016257600080fd5b5061017d6004803603810190610178919061086d565b6102ed565b005b610199600480360381019061019491906108e8565b6103e5565b005b3480156101a757600080fd5b506101b06106e3565b6040516101bd9190610a6f565b60405180910390f35b60036020528060005260406000206000915090508060000160009054906101000a900463ffffffff16908060000160049054906101000a900463ffffffff16905082565b61021261074d565b73ffffffffffffffffffffffffffffffffffffffff16610230610292565b73ffffffffffffffffffffffffffffffffffffffff1614610286576040517f08c379a000000000000000000000000000000000000000000000000000000000815260040161027d90610aea565b60405180910390fd5b6102906000610755565b565b60008060009054906101000a900473ffffffffffffffffffffffffffffffffffffffff16905090565b600160009054906101000a900473ffffffffffffffffffffffffffffffffffffffff1681565b670de0b6b3a764000081565b6102f561074d565b73ffffffffffffffffffffffffffffffffffffffff16610313610292565b73ffffffffffffffffffffffffffffffffffffffff1614610369576040517f08c379a000000000000000000000000000000000000000000000000000000000815260040161036090610aea565b60405180910390fd5b600073ffffffffffffffffffffffffffffffffffffffff168173ffffffffffffffffffffffffffffffffffffffff1614156103d9576040517f08c379a00000000000000000000000000000000000000000000000000000000081526004016103d090610a8a565b60405180910390fd5b6103e281610755565b50565b6101f48263ffffffff1611158015610404575060148263ffffffff1610155b610443576040517f08c379a000000000000000000000000000000000000000000000000000000000815260040161043a90610aca565b60405180910390fd5b60058163ffffffff1610158015610461575060c88163ffffffff1611155b6104a0576040517f08c379a000000000000000000000000000000000000000000000000000000000815260040161049790610b0a565b60405180910390fd5b670de0b6b3a76400003410156104eb576040517f08c379a00000000000000000000000000000000000000000000000000000000081526004016104e290610aaa565b60405180910390fd5b6000600260009054906101000a900473ffffffffffffffffffffffffffffffffffffffff1673ffffffffffffffffffffffffffffffffffffffff16636c1438626040518163ffffffff1660e01b815260040160206040518083038186803b15801561055557600080fd5b505afa158015610569573d6000803e3d6000fd5b505050506040513d601f19601f8201168201806040525081019061058d91906108bf565b905060405180604001604052808463ffffffff1681526020018363ffffffff168152506003600083815260200190815260200160002060008201518160000160006101000a81548163ffffffff021916908363ffffffff16021790555060208201518160000160046101000a81548163ffffffff021916908363ffffffff160217905550905050600260009054906101000a900473ffffffffffffffffffffffffffffffffffffffff1673ffffffffffffffffffffffffffffffffffffffff16636a627842336040518263ffffffff1660e01b815260040161066f9190610a0f565b600060405180830381600087803b15801561068957600080fd5b505af115801561069d573d6000803e3d6000fd5b505050507f76eab09f35b244d6d9f6579c10205d1b7e0cc3371e9ced6bbaa84102959197c9338285856040516106d69493929190610a2a565b60405180910390a1505050565b600260009054906101000a900473ffffffffffffffffffffffffffffffffffffffff1681565b80600260006101000a81548173ffffffffffffffffffffffffffffffffffffffff021916908373ffffffffffffffffffffffffffffffffffffffff16021790555050565b600033905090565b60008060009054906101000a900473ffffffffffffffffffffffffffffffffffffffff169050816000806101000a81548173ffffffffffffffffffffffffffffffffffffffff021916908373ffffffffffffffffffffffffffffffffffffffff1602179055508173ffffffffffffffffffffffffffffffffffffffff168173ffffffffffffffffffffffffffffffffffffffff167f8be0079c531659141344cd1fd0a4f28419497f9722a3daafe3b4186f6b6457e060405160405180910390a35050565b60008135905061082881610d08565b92915050565b60008135905061083d81610d1f565b92915050565b60008151905061085281610d1f565b92915050565b60008135905061086781610d36565b92915050565b60006020828403121561087f57600080fd5b600061088d84828501610819565b91505092915050565b6000602082840312156108a857600080fd5b60006108b68482850161082e565b91505092915050565b6000602082840312156108d157600080fd5b60006108df84828501610843565b91505092915050565b600080604083850312156108fb57600080fd5b600061090985828601610858565b925050602061091a85828601610858565b9150509250929050565b61092d81610b7f565b82525050565b61093c81610bcb565b82525050565b600061094f602683610b6e565b915061095a82610bef565b604082019050919050565b6000610972601c83610b6e565b915061097d82610c3e565b602082019050919050565b6000610995602583610b6e565b91506109a082610c67565b604082019050919050565b60006109b8602083610b6e565b91506109c382610cb6565b602082019050919050565b60006109db601f83610b6e565b91506109e682610cdf565b602082019050919050565b6109fa81610bb1565b82525050565b610a0981610bbb565b82525050565b6000602082019050610a246000830184610924565b92915050565b6000608082019050610a3f6000830187610924565b610a4c60208301866109f1565b610a596040830185610a00565b610a666060830184610a00565b95945050505050565b6000602082019050610a846000830184610933565b92915050565b60006020820190508181036000830152610aa381610942565b9050919050565b60006020820190508181036000830152610ac381610965565b9050919050565b60006020820190508181036000830152610ae381610988565b9050919050565b60006020820190508181036000830152610b03816109ab565b9050919050565b60006020820190508181036000830152610b23816109ce565b9050919050565b6000602082019050610b3f60008301846109f1565b92915050565b6000604082019050610b5a6000830185610a00565b610b676020830184610a00565b9392505050565b600082825260208201905092915050565b6000610b8a82610b91565b9050919050565b600073ffffffffffffffffffffffffffffffffffffffff82169050919050565b6000819050919050565b600063ffffffff82169050919050565b6000610bd682610bdd565b9050919050565b6000610be882610b91565b9050919050565b7f4f776e61626c653a206e6577206f776e657220697320746865207a65726f206160008201527f6464726573730000000000000000000000000000000000000000000000000000602082015250565b7f6e6f7420656e6f7567682045544820746f206d696e7420746f6b656e00000000600082015250565b7f706f776572206c6576656c206973206e6f74206265747765656e20323020616e60008201527f6420353030000000000000000000000000000000000000000000000000000000602082015250565b7f4f776e61626c653a2063616c6c6572206973206e6f7420746865206f776e6572600082015250565b7f686569676874206973206e6f74206265747765656e203520616e642032303000600082015250565b610d1181610b7f565b8114610d1c57600080fd5b50565b610d2881610bb1565b8114610d3357600080fd5b50565b610d3f81610bbb565b8114610d4a57600080fd5b5056fea2646970667358221220640d4537de9efbf3b2e62777384c248c62baa8953694257c52a81d787532edcd64736f6c63430008040033",
  "linkReferences": {},
  "deployedLinkReferences": {}
}