{
  "_format": "hh-sol-artifact-1",
  "contractName": "FactoryV2",
  "sourceName": "contracts/FactoryV2.sol",
  "abi": [
    {
      "anonymous": false,
      "inputs": [
        {
          "indexed": true,
          "internalType": "address",
          "name": "previousOwner",
          "type": "address"
        },
        {
          "indexed": true,
          "internalType": "address",
          "name": "newOwner",
          "type": "address"
        }
      ],
      "name": "OwnershipTransferred",
      "type": "event"
    },
    {
      "inputs": [],
      "name": "FEE",
      "outputs": [
        {
          "internalType": "uint256",
          "name": "",
          "type": "uint256"
        }
      ],
      "stateMutability": "view",
      "type": "function"
    },
    {
      "inputs": [
        {
          "internalType": "uint256",
          "name": "power",
          "type": "uint256"
        },
        {
          "internalType": "uint256",
          "name": "tokenid",
          "type": "uint256"
        }
      ],
      "name": "addNewPower",
      "outputs": [],
      "stateMutability": "nonpayable",
      "type": "function"
    },
    {
      "inputs": [
        {
          "internalType": "uint256",
          "name": "",
          "type": "uint256"
        }
      ],
      "name": "idToTitan",
      "outputs": [
        {
          "internalType": "uint32",
          "name": "power",
          "type": "uint32"
        },
        {
          "internalType": "uint32",
          "name": "height",
          "type": "uint32"
        }
      ],
      "stateMutability": "view",
      "type": "function"
    },
    {
      "inputs": [
        {
          "internalType": "uint256",
          "name": "",
          "type": "uint256"
        }
      ],
      "name": "idToTitanPower",
      "outputs": [
        {
          "internalType": "uint256",
          "name": "",
          "type": "uint256"
        }
      ],
      "stateMutability": "view",
      "type": "function"
    },
    {
      "inputs": [],
      "name": "otherContractAddress",
      "outputs": [
        {
          "internalType": "address",
          "name": "",
          "type": "address"
        }
      ],
      "stateMutability": "view",
      "type": "function"
    },
    {
      "inputs": [],
      "name": "owner",
      "outputs": [
        {
          "internalType": "address",
          "name": "",
          "type": "address"
        }
      ],
      "stateMutability": "view",
      "type": "function"
    },
    {
      "inputs": [],
      "name": "renounceOwnership",
      "outputs": [],
      "stateMutability": "nonpayable",
      "type": "function"
    },
    {
      "inputs": [],
      "name": "token",
      "outputs": [
        {
          "internalType": "contract TitanToken",
          "name": "",
          "type": "address"
        }
      ],
      "stateMutability": "view",
      "type": "function"
    },
    {
      "inputs": [
        {
          "internalType": "address",
          "name": "newOwner",
          "type": "address"
        }
      ],
      "name": "transferOwnership",
      "outputs": [],
      "stateMutability": "nonpayable",
      "type": "function"
    }
  ],
  "bytecode": "0x608060405234801561001057600080fd5b5061002d61002261003260201b60201c565b61003a60201b60201c565b6100fe565b600033905090565b60008060009054906101000a900473ffffffffffffffffffffffffffffffffffffffff169050816000806101000a81548173ffffffffffffffffffffffffffffffffffffffff021916908373ffffffffffffffffffffffffffffffffffffffff1602179055508173ffffffffffffffffffffffffffffffffffffffff168173ffffffffffffffffffffffffffffffffffffffff167f8be0079c531659141344cd1fd0a4f28419497f9722a3daafe3b4186f6b6457e060405160405180910390a35050565b6109058061010d6000396000f3fe608060405234801561001057600080fd5b50600436106100935760003560e01c8063c0a15e9911610066578063c0a15e991461010d578063c0f120c31461012b578063c57981b51461015b578063f2fde38b14610179578063fc0c546a1461019557610093565b80634ecce57f14610098578063715018a6146100c95780638da5cb5b146100d35780639a0f333e146100f1575b600080fd5b6100b260048036038101906100ad919061059b565b6101b3565b6040516100c0929190610756565b60405180910390f35b6100d16101f7565b005b6100db61027f565b6040516100e891906106a5565b60405180910390f35b61010b600480360381019061010691906105c4565b6102a8565b005b610115610314565b60405161012291906106a5565b60405180910390f35b6101456004803603810190610140919061059b565b61033a565b604051610152919061073b565b60405180910390f35b610163610352565b604051610170919061073b565b60405180910390f35b610193600480360381019061018e9190610572565b61035e565b005b61019d610456565b6040516101aa91906106c0565b60405180910390f35b60036020528060005260406000206000915090508060000160009054906101000a900463ffffffff16908060000160049054906101000a900463ffffffff16905082565b6101ff61047c565b73ffffffffffffffffffffffffffffffffffffffff1661021d61027f565b73ffffffffffffffffffffffffffffffffffffffff1614610273576040517f08c379a000000000000000000000000000000000000000000000000000000000815260040161026a9061071b565b60405180910390fd5b61027d6000610484565b565b60008060009054906101000a900473ffffffffffffffffffffffffffffffffffffffff16905090565b603282111580156102b95750600582115b6102f8576040517f08c379a00000000000000000000000000000000000000000000000000000000081526004016102ef906106fb565b60405180910390fd5b8160046000838152602001908152602001600020819055505050565b600160009054906101000a900473ffffffffffffffffffffffffffffffffffffffff1681565b60046020528060005260406000206000915090505481565b670de0b6b3a764000081565b61036661047c565b73ffffffffffffffffffffffffffffffffffffffff1661038461027f565b73ffffffffffffffffffffffffffffffffffffffff16146103da576040517f08c379a00000000000000000000000000000000000000000000000000000000081526004016103d19061071b565b60405180910390fd5b600073ffffffffffffffffffffffffffffffffffffffff168173ffffffffffffffffffffffffffffffffffffffff16141561044a576040517f08c379a0000000000000000000000000000000000000000000000000000000008152600401610441906106db565b60405180910390fd5b61045381610484565b50565b600260009054906101000a900473ffffffffffffffffffffffffffffffffffffffff1681565b600033905090565b60008060009054906101000a900473ffffffffffffffffffffffffffffffffffffffff169050816000806101000a81548173ffffffffffffffffffffffffffffffffffffffff021916908373ffffffffffffffffffffffffffffffffffffffff1602179055508173ffffffffffffffffffffffffffffffffffffffff168173ffffffffffffffffffffffffffffffffffffffff167f8be0079c531659141344cd1fd0a4f28419497f9722a3daafe3b4186f6b6457e060405160405180910390a35050565b600081359050610557816108a1565b92915050565b60008135905061056c816108b8565b92915050565b60006020828403121561058457600080fd5b600061059284828501610548565b91505092915050565b6000602082840312156105ad57600080fd5b60006105bb8482850161055d565b91505092915050565b600080604083850312156105d757600080fd5b60006105e58582860161055d565b92505060206105f68582860161055d565b9150509250929050565b61060981610790565b82525050565b610618816107dc565b82525050565b600061062b60268361077f565b915061063682610800565b604082019050919050565b600061064e601e8361077f565b91506106598261084f565b602082019050919050565b600061067160208361077f565b915061067c82610878565b602082019050919050565b610690816107c2565b82525050565b61069f816107cc565b82525050565b60006020820190506106ba6000830184610600565b92915050565b60006020820190506106d5600083018461060f565b92915050565b600060208201905081810360008301526106f48161061e565b9050919050565b6000602082019050818103600083015261071481610641565b9050919050565b6000602082019050818103600083015261073481610664565b9050919050565b60006020820190506107506000830184610687565b92915050565b600060408201905061076b6000830185610696565b6107786020830184610696565b9392505050565b600082825260208201905092915050565b600061079b826107a2565b9050919050565b600073ffffffffffffffffffffffffffffffffffffffff82169050919050565b6000819050919050565b600063ffffffff82169050919050565b60006107e7826107ee565b9050919050565b60006107f9826107a2565b9050919050565b7f4f776e61626c653a206e6577206f776e657220697320746865207a65726f206160008201527f6464726573730000000000000000000000000000000000000000000000000000602082015250565b7f706f776572206d757374206265206265747765656e203520616e642035300000600082015250565b7f4f776e61626c653a2063616c6c6572206973206e6f7420746865206f776e6572600082015250565b6108aa81610790565b81146108b557600080fd5b50565b6108c1816107c2565b81146108cc57600080fd5b5056fea2646970667358221220cb034dc8767f563fe73a621d244f888158e646fd99af563438a0dbdad1a9cf4564736f6c63430008040033",
  "linkReferences": {},
  "deployedLinkReferences": {}
}