{
  "_format": "hh-sol-artifact-1",
  "contractName": "mockToken",
  "sourceName": "contracts/mockToken.sol",
  "abi": [
    {
      "inputs": [
        {
          "internalType": "address",
          "name": "_to",
          "type": "address"
        }
      ],
      "name": "mint",
      "outputs": [],
      "stateMutability": "nonpayable",
      "type": "function"
    }
  ],
  "bytecode": "0x608060405234801561001057600080fd5b5060fb8061001f6000396000f3fe6080604052348015600f57600080fd5b506004361060285760003560e01c80636a62784214602d575b600080fd5b60436004803603810190603f9190605b565b6045565b005b50565b60008135905060558160b1565b92915050565b600060208284031215606c57600080fd5b60006078848285016048565b91505092915050565b6000608a826091565b9050919050565b600073ffffffffffffffffffffffffffffffffffffffff82169050919050565b60b8816081565b811460c257600080fd5b5056fea26469706673582212208730ba431c886a4872cd910250438652d05273394766513cafea7b0f666d1b8164736f6c63430008040033",
  "linkReferences": {},
  "deployedLinkReferences": {}
}