{
  "_format": "hh-sol-artifact-1",
  "contractName": "ProxyLayout",
  "sourceName": "contracts/ProxyLayout.sol",
  "abi": [
    {
      "anonymous": false,
      "inputs": [
        {
          "indexed": true,
          "internalType": "address",
          "name": "previousOwner",
          "type": "address"
        },
        {
          "indexed": true,
          "internalType": "address",
          "name": "newOwner",
          "type": "address"
        }
      ],
      "name": "OwnershipTransferred",
      "type": "event"
    },
    {
      "inputs": [],
      "name": "otherContractAddress",
      "outputs": [
        {
          "internalType": "address",
          "name": "",
          "type": "address"
        }
      ],
      "stateMutability": "view",
      "type": "function"
    },
    {
      "inputs": [],
      "name": "owner",
      "outputs": [
        {
          "internalType": "address",
          "name": "",
          "type": "address"
        }
      ],
      "stateMutability": "view",
      "type": "function"
    },
    {
      "inputs": [],
      "name": "renounceOwnership",
      "outputs": [],
      "stateMutability": "nonpayable",
      "type": "function"
    },
    {
      "inputs": [],
      "name": "token",
      "outputs": [
        {
          "internalType": "contract TitanToken",
          "name": "",
          "type": "address"
        }
      ],
      "stateMutability": "view",
      "type": "function"
    },
    {
      "inputs": [
        {
          "internalType": "address",
          "name": "newOwner",
          "type": "address"
        }
      ],
      "name": "transferOwnership",
      "outputs": [],
      "stateMutability": "nonpayable",
      "type": "function"
    }
  ],
  "bytecode": "0x608060405234801561001057600080fd5b5061002d61002261003260201b60201c565b61003a60201b60201c565b6100fe565b600033905090565b60008060009054906101000a900473ffffffffffffffffffffffffffffffffffffffff169050816000806101000a81548173ffffffffffffffffffffffffffffffffffffffff021916908373ffffffffffffffffffffffffffffffffffffffff1602179055508173ffffffffffffffffffffffffffffffffffffffff168173ffffffffffffffffffffffffffffffffffffffff167f8be0079c531659141344cd1fd0a4f28419497f9722a3daafe3b4186f6b6457e060405160405180910390a35050565b6105e18061010d6000396000f3fe608060405234801561001057600080fd5b50600436106100575760003560e01c8063715018a61461005c5780638da5cb5b14610066578063c0a15e9914610084578063f2fde38b146100a2578063fc0c546a146100be575b600080fd5b6100646100dc565b005b61006e610164565b60405161007b919061043f565b60405180910390f35b61008c61018d565b604051610099919061043f565b60405180910390f35b6100bc60048036038101906100b791906103b2565b6101b3565b005b6100c66102ab565b6040516100d3919061045a565b60405180910390f35b6100e46102d1565b73ffffffffffffffffffffffffffffffffffffffff16610102610164565b73ffffffffffffffffffffffffffffffffffffffff1614610158576040517f08c379a000000000000000000000000000000000000000000000000000000000815260040161014f90610495565b60405180910390fd5b61016260006102d9565b565b60008060009054906101000a900473ffffffffffffffffffffffffffffffffffffffff16905090565b600160009054906101000a900473ffffffffffffffffffffffffffffffffffffffff1681565b6101bb6102d1565b73ffffffffffffffffffffffffffffffffffffffff166101d9610164565b73ffffffffffffffffffffffffffffffffffffffff161461022f576040517f08c379a000000000000000000000000000000000000000000000000000000000815260040161022690610495565b60405180910390fd5b600073ffffffffffffffffffffffffffffffffffffffff168173ffffffffffffffffffffffffffffffffffffffff16141561029f576040517f08c379a000000000000000000000000000000000000000000000000000000000815260040161029690610475565b60405180910390fd5b6102a8816102d9565b50565b600260009054906101000a900473ffffffffffffffffffffffffffffffffffffffff1681565b600033905090565b60008060009054906101000a900473ffffffffffffffffffffffffffffffffffffffff169050816000806101000a81548173ffffffffffffffffffffffffffffffffffffffff021916908373ffffffffffffffffffffffffffffffffffffffff1602179055508173ffffffffffffffffffffffffffffffffffffffff168173ffffffffffffffffffffffffffffffffffffffff167f8be0079c531659141344cd1fd0a4f28419497f9722a3daafe3b4186f6b6457e060405160405180910390a35050565b6000813590506103ac81610594565b92915050565b6000602082840312156103c457600080fd5b60006103d28482850161039d565b91505092915050565b6103e4816104c6565b82525050565b6103f3816104f8565b82525050565b60006104066026836104b5565b91506104118261051c565b604082019050919050565b60006104296020836104b5565b91506104348261056b565b602082019050919050565b600060208201905061045460008301846103db565b92915050565b600060208201905061046f60008301846103ea565b92915050565b6000602082019050818103600083015261048e816103f9565b9050919050565b600060208201905081810360008301526104ae8161041c565b9050919050565b600082825260208201905092915050565b60006104d1826104d8565b9050919050565b600073ffffffffffffffffffffffffffffffffffffffff82169050919050565b60006105038261050a565b9050919050565b6000610515826104d8565b9050919050565b7f4f776e61626c653a206e6577206f776e657220697320746865207a65726f206160008201527f6464726573730000000000000000000000000000000000000000000000000000602082015250565b7f4f776e61626c653a2063616c6c6572206973206e6f7420746865206f776e6572600082015250565b61059d816104c6565b81146105a857600080fd5b5056fea2646970667358221220ce8284711f0b4bf154cd71d2c5f7429926b41a454fdfc167e694e99ed58bb85d64736f6c63430008040033",
  "linkReferences": {},
  "deployedLinkReferences": {}
}